:020000040802F0
:1000000020EC0120AD030208850A0308870A0308D3
:100010008B0A03088F0A0308930A030800000000F4
:10002000000000000000000000000000990A030822
:10003000970A0308000000009B0A03089D0A0308B2
:10004000C7030208C7030208C7030208C703020860
:10005000C7030208C7030208C7030208C703020850
:10006000C7030208C7030208C7030208C703020840
:10007000C7030208C7030208C7030208C703020830
:10008000C7030208410D0308C7030208C70302089B
:10009000C7030208C7030208C7030208BD2C0308F0
:1000A000C7030208C7030208C7030208C703020800
:1000B000C7030208C7030208C7030208C7030208F0
:1000C000C7030208C7030208C7030208C7030208E0
:1000D000C70302089F0A0308BDCE0208910B03085C
:1000E000C7030208C7030208C7030208C7030208C0
:1000F000C7030208C7030208C7030208C7030208B0
:10010000C7030208C7030208C7030208C70302089F
:10011000C7030208C7030208C7030208A71E030893
:10012000C7030208C7030208C7030208C70302087F
:10013000C7030208C7030208C7030208C70302086F
:10014000C7030208C7030208C7030208C70302085F
:10015000C70302080D0D0308C7030208DF0C0308DC
:10016000C7030208C7030208C7030208C70302083F
:10017000C7030208C7030208C7030208C70302082F
:10018000C7030208C7030208DFF80CD01AF0C0FD4D
:1001900000480047B3BC020820EC01200CB5002049
:1001A000019000907648006840F4803074490860FF
:1001B00000BF7348006800F4003000900198401CB4
:1001C0000190009818B90198B0F5A06FF1D16C4872
:1001D000006800F4003010B10120009001E0002020
:1001E00000900098012846D165484030006840F0F2
:1001F00080506349403108606248006840F48040A4
:10020000604908605E48083000685D490831086050
:100210000846006840F4004008600846006840F462
:10022000A05008605848091F0860081F006840F087
:100230008070091F086000BF5148006800F000701E
:100240000028F9D040F20560504908604C48083059
:10025000006820F003004A49083108600846006839
:1002600040F00200086000BF45480830006800F018
:100270000C000828F8D10CBD10B54548006840F4C2
:100280007000434908603E48006840F001003C4966
:10029000086000203A4908310860394800683D4943
:1002A0000840374908603C48091D0860081F00687D
:1002B00020F48020091F0860002031490C310860BB
:1002C000FFF76CFF4FF0006031498039086010BDC6
:1002D00070B500200022022300240221284D083599
:1002E0002D6805F00C0020B1042806D0082834D170
:1002F00007E02A4D2A4E356033E02A4D284E3560FE
:100300002FE01F4D2D1D2D68C5F380541C4D2D1D54
:100310002D6805F03F0154B1224DB5FBF1F5184EA3
:10032000361D3668C6F3881605FB06F209E01B4D3C
:10033000B5FBF1F5124E361D3668C6F3881605FB7F
:1003400006F20F4D2D1D2D68C5F301456D1C6B0088
:10035000B2FBF3F5124E356003E0104D104E3560E0
:1003600000BF00BF064D08352D68C5F303150E4EBE
:10037000705D0B4D2D68C540094E356070BD0000A5
:10038000003802400070004010544007003C02401A
:1003900088ED00E0FFFFF6FE103000240024F4009A
:1003A0000000001000127A00040000100648804788
:1003B00006480047FEE7FEE7FEE7FEE7FEE7FEE74A
:1003C000FEE7FEE7FEE7FEE7790202088901020880
:1003D00000BFFEE700B50246B2F5E06F0BD0B2F504
:1003E000C06F08D0B2F5A06F05D0B2F5806F02D013
:1003F000B2F5407F00D103E079215EA0FFF7E8FF6E
:10040000694810436949086000BD70B50246002381
:1004100000250F24D07810B1D078012800D103E056
:100420008D2154A0FFF7D4FF5078102800DA03E0A4
:100430008E2150A0FFF7CCFF9078102800DA03E05F
:100440008F214CA0FFF7C4FFD07818B3574800683D
:1004500000F4E060C0F5E060C0F30723C3F10400DE
:10046000C5B21C415078A840C3B2907820400343E5
:100470001807030E4E4811784354107800F01F01FE
:100480000120884011784911890001F1E021C1F86B
:10049000000109E0107800F01F0101208840454963
:1004A0001678761141F8260070BD00B502460B465D
:1004B000B2F1005F02D0B2F1006F00D103E0B721CA
:1004C0002CA0FFF785FF3C48834200D203E0B8210F
:1004D00028A0FFF77DFF394903EA010010433349A3
:1004E000091F086000BD00B502460B46102A03D064
:1004F000042A01D0022A00D103E0CA211DA0FFF77F
:1005000067FF0BB1012B00D103E0CB2119A0FFF74E
:100510005FFF3BB12548001D006810432349091DBA
:10052000086006E02148001D006890431F49091D2E
:10053000086000BD00B50246042A01D0501D00B974
:1005400003E0E2210BA0FFF743FF042A08D14FF09C
:10055000E020006940F004004FF0E021086107E06E
:100560004FF0E020006920F004004FF0E021086126
:1005700000BD00002E2E5C4C696272617269657369
:100580005C53544D3332463478785F53746450650D
:10059000726970685F4472697665725C7372635CDD
:1005A0006D6973632E6300000000FA050CED00E036
:1005B00000E400E080E100E0FFFF0F0080FFFF1F8C
:1005C00010B50446FE4884423AD0FD4818308442B3
:1005D00036D0FB483030844232D0F948483084422B
:1005E0002ED0F748603084422AD0F54878308442D3
:1005F00026D0F3489030844222D0F148A83084427B
:100600001ED0F04884421BD0EE481830844217D0E8
:10061000EC483030844213D0EA48483084420FD04E
:10062000E848603084420BD0E6487830844207D0F6
:10063000E4489030844203D0E248A830844200D19C
:1006400003E0BF21E0A0FFF7C3FE206820F0010017
:100650002060002020606060A060E06020612120B8
:100660006061D748844204D13D20D5491039886063
:100670008CE0D3481830844205D14FF47460D049DF
:100680001039886082E0CE483030844205D14FF482
:100690007410CB491039886078E0C94848308442EA
:1006A00005D14FF07460C649103988606EE0C448C7
:1006B0006030844204D1D348C1491039C86065E034
:1006C000BF487830844204D1CF48BD491039C86052
:1006D0005CE0BB489030844204D1CC48B849103922
:1006E000C86053E0B648A830844205D14FF03D5071
:1006F000B3491039C86049E0B248844204D13D2072
:10070000B0490839086041E0AE481830844205D14C
:100710004FF47460AB490839086037E0A9483030BD
:10072000844205D14FF47410A649083908602DE0C1
:10073000A4484830844205D14FF07460A14908397B
:10074000086023E09F486030844204D1AD489D4951
:10075000091F08601AE09B487830844204D1AA48F7
:100760009849091F086011E096489030844204D1EE
:10077000A6489449091F086008E09248A8308442BE
:1007800004D14FF03D508F49091F086010BD70B56E
:1007900005460C4600268A4885423AD088481830DB
:1007A000854236D086483030854232D08448483041
:1007B00085422ED08248603085422AD080487830E9
:1007C000854226D07E489030854222D07C48A83091
:1007D00085421ED07B4885421BD07A48183085421E
:1007E00017D078483030854213D07648483085425B
:1007F0000FD07448603085420BD072487830854203
:1008000007D070489030854203D06E48A8308542AA
:1008100000D104E04FF49E716BA0FFF7D9FD206872
:10082000D8B12068B0F1007F17D02068B0F1806F98
:1008300013D02068B0F1C06F0FD02068B0F1006F06
:100840000BD02068B0F1206F07D02068B0F1406F66
:1008500003D02068B0F1606F00D104E040F23D1198
:1008600059A0FFF7B5FDE06828B1E068402802D044
:10087000E068802800D104E04FF49F7152A0FFF798
:10088000A7FD206920B12069B0F5803F00D204E0C7
:1008900040F23F114CA0FFF79BFD6069B0F5007F6F
:1008A00001D0606900B904E04FF4A07146A0FFF7E1
:1008B0008FFDA069B0F5806F01D0A06900B904E098
:1008C00040F2411140A0FFF783FDE06938B1E069D3
:1008D000B0F5006F03D0E069B0F5805F00D104E0AF
:1008E0004FF4A17138A0FFF773FD206A38B1206A78
:1008F000B0F5005F03D0206AB0F5804F00D104E06E
:1009000040F2431130A0FFF763FD606A18B1606ADE
:10091000B0F5807F00D104E04FF4A2712AA0FFF768
:1009200057FDA06A58B1A06AB0F5803F07D0A06A11
:10093000B0F5003F03D0A06AB0F5403F00D104E01D
:1009400040F2451120A0FFF743FDE06A10B1E06AD4
:10095000042800D104E04FF4A3711BA0FFF738FD79
:10096000206B40B1206B012805D0206B022802D0FB
:10097000206B032800D104E040F2471112A0FFF7DA
:1009800027FD606B58B1606BB0F5000F07D0606B4E
:10099000B0F1807F03D0606BB0F1C07F00D104E084
:1009A0004FF4A47108A0FFF713FDA06B80B3A06BF8
:1009B000B0F5001F31D0A06BB0F5800F2DD028E02E
:1009C00010600240106402402E2E5C4C696272611D
:1009D000726965735C53544D3332463478785F5393
:1009E00074645065726970685F4472697665725CA0
:1009F0007372635C73746D3332663478785F646DE0
:100A0000612E63003D000020400F002000003D20CB
:100A100003E0A06BB0F5C00F00D105E040F2491132
:100A2000AFF25C00FFF7D4FC2E68FE480640E16898
:100A30002068084361690843A1690843E1690843E4
:100A4000216A0843616A0843A16A0843616B08434D
:100A5000A16B084306432E606E6926F00706D4E9B1
:100A60000B01084306436E61206968606068A860F6
:100A7000A068E86070BD0021016041608160C160D4
:100A8000016141618161C161016241628162C16252
:100A9000016341638163704770B504460D46E248C7
:100AA00084423AD0E0481830844236D0DE483030B4
:100AB000844232D0DC48483084422ED0DA4860305C
:100AC00084422AD0D8487830844226D0D648903004
:100AD000844222D0D448A83084421ED0D3488442D5
:100AE0001BD0D2481830844217D0D04830308442CE
:100AF00013D0CE48483084420FD0CC486030844276
:100B00000BD0CA487830844207D0C848903084421D
:100B100003D0C648A830844200D105E040F2D91184
:100B2000AFF25C10FFF754FC0DB1012D00D105E0D0
:100B30004FF4ED71AFF27010FFF74AFC25B1206859
:100B400040F00100206003E0206820F001002060F8
:100B500070BD70B504460D46B34884423AD0B248E1
:100B60001830844236D0B0483030844232D0AE485B
:100B7000483084422ED0AC48603084422AD0AA4803
:100B80007830844226D0A8489030844222D0A648AB
:100B9000A83084421ED0A54884421BD0A3481830F8
:100BA000844217D0A1483030844213D09F48483047
:100BB00084420FD09D48603084420BD09B487830EF
:100BC000844207D099489030844203D09748A83097
:100BD000844200D105E040F2FD11AFF21420FFF78E
:100BE000F7FB15B1B5F5004F00D105E04FF4FF71EB
:100BF000AFF22C20FFF7ECFB25B1206840F4004059
:100C0000206003E0206820F40040206070BD70B5D3
:100C100004460D46844884423AD0834818308442C2
:100C200036D081483030844232D07F4848308442C8
:100C30002ED07D48603084422AD07B487830844270
:100C400026D079489030844222D07748A830844218
:100C50001ED0764884421BD074481830844217D086
:100C600072483030844213D07048483084420FD0EC
:100C70006E48603084420BD06C487830844207D094
:100C80006A489030844203D06848A830844200D13A
:100C900005E040F22121AFF2D020FFF799FB0DB122
:100CA000202D00D105E040F22221AFF2E420FFF731
:100CB0008FFB25B1206840F02000206003E0206811
:100CC00020F02000206070BD70B504460D465648E7
:100CD00084423AD054481830844236D0524830309A
:100CE000844232D05048483084422ED04E48603042
:100CF00084422AD04C487830844226D04A489030EA
:100D0000844222D04848A83084421ED047488442BA
:100D10001BD046481830844217D0444830308442B3
:100D200013D04248483084420FD04048603084425B
:100D30000BD03E487830844207D03C489030844203
:100D400003D03A48A830844200D105E040F2752132
:100D5000AFF28C30FFF73CFB656070BD10B5044608
:100D6000314884423AD030481830844236D02E4838
:100D70003030844232D02C48483084422ED02A4829
:100D8000603084422AD028487830844226D02648D1
:100D90009030844222D02448A83084421ED0234878
:100DA00084421BD021481830844217D01F4830306D
:100DB000844213D01D48483084420FD01B48603015
:100DC00084420BD019487830844207D017489030BD
:100DD000844203D01548A830844200D105E04FF486
:100DE0002171AFF21C40FFF7F3FA606880B210BDCA
:100DF00070B504460E4615460B48844240D00A485A
:100E0000183084423CD008483030844238D00648FC
:100E10004830844234D004486030844230D00248A4
:100E2000783005E03F801CF0106002401064024002
:100E3000844225D0FE48844222D0FD4818308442A6
:100E40001ED0FC4884421BD0FA481830844217D088
:100E5000F8483030844213D0F648483084420FD0EE
:100E6000F448603084420BD0F2487830844207D096
:100E7000F0489030844203D0EE48A830844200D13C
:100E800005E040F2D221AFF2C040FFF7A1FA15B160
:100E9000B5F5002F00D105E040F2D321AFF2D840E4
:100EA000FFF796FA25B1206840F40020206003E0A7
:100EB000206820F400202060266170BD70B50446D3
:100EC0000D46DB489038844239D0D948783884427E
:100ED00035D0D7486038844231D0D548483884422C
:100EE0002DD0D3483038844229D0D1481838844294
:100EF00025D0CF48844222D0CD48183084421ED01D
:100F0000CC4884421BD0CB481830844217D0C94803
:100F10003030844213D0C748483084420FD0C5488F
:100F2000603084420BD0C3487830844207D0C14837
:100F30009030844203D0BF48A830844200D105E0FD
:100F40004FF43C71AFF28050FFF742FA0DB1012D22
:100F500000D105E040F2F121AFF29450FFF738FAEA
:100F600025B1206840F48020206003E0206820F450
:100F70008020206070BD70B504460E461546AC4812
:100F80009038844239D0AA487838844235D0A8486D
:100F90006038844231D0A648483884422DD0A448D5
:100FA0003038844229D0A2481838844225D0A0483D
:100FB000844222D09E48183084421ED09D488442EC
:100FC0001BD09C481830844217D09A483030844255
:100FD00013D09848483084420FD0964860308442FD
:100FE0000BD094487830844207D0924890308442A5
:100FF00003D09048A830844200D105E040F21A3175
:10100000AFF23C60FFF7E4F915B1B5F5002F00D160
:1010100005E040F21B31AFF25060FFF7D9F90DB196
:10102000266100E0E66070BD70B50446002580488A
:101030009038844239D07E487838844235D07C4814
:101040006038844231D07A48483884422DD078487C
:101050003038844229D076481838844225D07448E4
:10106000844222D07248183084421ED07148844293
:101070001BD070481830844217D06E4830308442FC
:1010800013D06C48483084420FD06A4860308442A4
:101090000BD068487830844207D06648903084424C
:1010A00003D06448A830844200D105E040F23531D5
:1010B000AFF2EC60FFF78CF9206800F4002008B173
:1010C000012500E00025284670BD70B504460025C6
:1010D00057489038844239D055487838844235D0C2
:1010E00053486038844231D05148483884422DD02A
:1010F0004F483038844229D04D481838844225D092
:101100004B48844222D04A48183084421ED0494875
:1011100084421BD047481830844217D045483030AD
:10112000844213D04348483084420FD04148603055
:1011300084420BD03F487830844207D03D489030FD
:10114000844203D03B48A830844200D105E040F2FD
:10115000A231AFF28C70FFF73BF9206800F001007C
:1011600008B1012500E00025284670BD70B5044691
:1011700000252F489038844239D02D487838844251
:1011800035D02B486038844231D0294848388442D1
:101190002DD027483038844229D025481838844239
:1011A00025D02348844222D02148183084421ED0C2
:1011B000204884421BD01F481830844217D01D4855
:1011C0003030844213D01B48483084420FD0194835
:1011D000603084420BD017487830844207D01548DD
:1011E0009030844203D01348A830844200D105E0F7
:1011F0004FF47171AFF63000FFF7EAF8606900F064
:101200003805284670BD2DE9F04105460C464FF0E3
:10121000000800270648903885423ED004487838B8
:1012200085423AD002486038854236D0004803E013
:10123000A060024010640240483885422DD0FE482C
:1012400085422AD0FC481830854226D0FA483030F2
:10125000854222D0F848483085421ED0F748854262
:101260001BD0F6481830854217D0F44830308542FC
:1012700013D0F248483085420FD0F04860308542A4
:101280000BD0EE487830854207D0EC48903085424C
:1012900003D0EA48A830854200D105E040F2E131B0
:1012A000AFF6DC00FFF794F8E54884427CD0E448D0
:1012B0001038844278D0E2481838844274D0E1482B
:1012C000844271D0C01E84426ED0DF4884426BD00D
:1012D000DE48844268D0DE48844265D0D848E03099
:1012E000844261D0D648203084425DD0B4F1815F21
:1012F0005AD0D848844257D0D748844254D0D7488F
:10130000844251D0D64884424ED0B4F1C05F4BD015
:10131000B4F1A05F48D0B4F1905F45D0B4F1885FDC
:1013200042D0B4F1825F3FD0CE4884423CD0CD4819
:101330001038844238D0CB481838844234D0001F4B
:10134000844231D0C01E84422ED0C74884422BD064
:10135000C648844228D0C648844225D0C148E030DF
:10136000844221D0BF48203084421DD0C1488442ED
:101370001AD0C148844217D0C048844214D0C04813
:10138000844211D0BF4884420ED0B4F1205F0BD00C
:10139000B4F1105F08D0B4F1085F05D0B4F1045F78
:1013A00002D0B4F1015F00D105E040F2E231AFF6C6
:1013B000E810FFF70DF8A148854202D29E4E703E1C
:1013C00001E09E4E103E04F0005008B1776800E046
:1013D0003768AD48074007EA040010B14FF0010834
:1013E00001E04FF000084046BDE8F08170B50446CA
:1013F0000D4691486038844239D08F48483884423D
:1014000035D08D483038844231D08B4818388442EA
:101410002DD0894884422AD087481830844226D06B
:1014200085483030844222D08348483084421ED0E0
:10143000824884421BD081481830844217D07F48AC
:101440003030844213D07D48483084420FD07B48EE
:10145000603084420BD079487830844207D0774896
:101460009030844203D07548A830844200D105E012
:1014700040F22241AFF6B020FEF7AAFF05F040503F
:10148000B0F1405F07D005F0405020B17F482840C0
:1014900008B905B105E040F22341AFF6D420FEF7CC
:1014A00097FF6648844202D2634E703E01E0634E6D
:1014B000103E05F0005018B173482840F06002E07B
:1014C00071482840B06070BD70B504460D461646A0
:1014D00059486038844239D057484838844235D01A
:1014E00055483038844231D05348183884422DD082
:1014F000514884422AD050481830844226D04E4861
:101500003030844222D04C48483084421ED04B4870
:1015100084421BD049481830844217D047483030A5
:10152000844213D04548483084420FD0434860304D
:1015300084420BD041487830844207D03F489030F5
:10154000844203D03D48A830844200D105E040F2F7
:101550004F41AFF68C30FEF73BFF25F09E0008B9F7
:1015600005B105E04FF48A61AFF6A430FEF730FF15
:101570000EB1012E00D105E040F25141AFF6B83076
:10158000FEF726FF05F0800048B126B1606940F003
:101590008000606103E0606920F080006061802D60
:1015A0000BD02EB1206805F01E010843206004E036
:1015B000206805F01E018843206070BD2DE9F047CA
:1015C00005460C464FF000080027B9461A48603817
:1015D000854265D018484838854261D01648303871
:1015E00085425DD014481838854259D0124885424A
:1015F00056D011481830854252D00F4830308542BD
:101600004ED00D48483085424AD00C48854247D0DC
:101610000A481830854243D00848303085423FD0D0
:101620000648483085423BD004486030854237D078
:101630000248783085422BE070600240106402401E
:1016400020000010040080100008001000040010AA
:10165000000200100000101000000810000004102C
:1016600000000110200000200008002000040020DD
:1016700000020020000020200000102000000820B0
:1016800000000420000001207D0F7D0F82F082C049
:1016900006D09548854203D093481830854200D142
:1016A00005E040F28741AFF6E040FEF791FE8F483B
:1016B000844278D08E48844275D08E48844272D05D
:1016C0008D4884426FD08D4884426CD08C488442CF
:1016D00069D08C48844266D08B48844263D0864867
:1016E000FC3084425FD085483F3084425BD08748DD
:1016F000844258D08648844255D08648844252D08D
:10170000854884424FD0854884424CD084488442E6
:1017100049D08448844246D08348844243D0834899
:10172000844240D0824884423DD0824884423AD0AC
:101730008148844237D08148844234D080488442F2
:1017400031D0804884422ED07F4884422BD07F48BD
:10175000844228D07E48844225D07948FC30844297
:1017600021D078483F3084421DD07A4884421AD034
:101770007948844217D07948844214D0784884420A
:1017800011D0784884420ED0774884420BD07748F5
:10179000844208D07648844205D07648844202D0FC
:1017A0007548844200D105E04FF49161AFF6E850EE
:1017B000FEF70EFE4C489038854201D26F4E01E094
:1017C000494EA03E6E48204030B11E2000EAD4278A
:1017D000286800EA070902E0686900F0800904F05F
:1017E000005008B1776800E037686648074007EAAC
:1017F000040028B1B9F1000F02D04FF0010801E058
:101800004FF000084046BDE8F08770B504460D462D
:101810005A48103084423AD058482830844236D052
:1018200056484030844232D05448583084422ED0FA
:101830005248703084422AD050488830844226D0A2
:101840004E48A030844222D04C48B83084421ED04A
:101850002548903884421AD023487838844216D0DC
:1018600021486038844212D01F48483884420ED044
:101870001D48303884420AD01B481838844206D0AC
:101880001948844203D018481830844200D105E03A
:1018900040F2D741AFF6D060FEF79AFD05F0405018
:1018A000B0F1405F07D005F0405020B11DB136487F
:1018B000284000B905E04FF49B61AFF6F460FEF7F5
:1018C00087FD09489038844201D22C4E01E0064E33
:1018D000A03E05F0005018B12A482840F06002E010
:1018E00028482840B06070BDA064024020800010ED
:1018F000104000100820001004100010010000909B
:101900000088001000440010002200100080201009
:10191000004010100020081000100410000001907A
:101920000080001800400014002000120010001178
:10193000000040902080002010400020082000205F
:1019400004100020010000A00088002000440020B6
:1019500000220020008020200040102000200820CD
:1019600000100420000001A0008000280040002496
:101970000020002200100021000040A00060024072
:101980003C0F3C0F7D0F7D0F820082400020B1494B
:101990000860091D0860091D0860091D0860AE483F
:1019A000AC4914310860704770B5044600252079B1
:1019B00010B12079042800D103E07C21A7A0FEF714
:1019C00007FD6079082805D060790C2802D060797D
:1019D000102800D103E07D21A0A0FEF7F9FC2068CB
:1019E0006FF3160010B9206800B103E07E219BA0C0
:1019F000FEF7EEFCA07910B1A079012800D103E038
:101A00007F2196A0FEF7E4FC924DA07990B3284682
:101A100000682168884329460860081D006821681D
:101A20008843291D086020790544286821680843F7
:101A30002860884808300068216888438549083153
:101A40000860081D00682168884382490C310860DD
:101A5000607910280FD1081F0068216808437D496C
:101A600008310860081D00682168084379490C3175
:101A700008600EE007E0774D60790544286821682A
:101A80000843286005E020790544286821688843D8
:101A9000286070BD0021016001710C21417100219D
:101AA0008171704710B50446E00DC00508B904B156
:101AB00003E0C12169A0FEF78BFC66481030006886
:101AC000204364491031086010BD70B504460025FC
:101AD000012C3AD0022C38D0042C36D0082C34D02B
:101AE000102C32D0202C30D0402C2ED0802C2CD05A
:101AF000B4F5807F29D0B4F5007F26D0B4F5806F8F
:101B000023D0B4F5006F20D0B4F5805F1DD0B4F5BC
:101B1000005F1AD0B4F5804F17D0B4F5004F14D041
:101B2000B4F5803F11D0B4F5003F0ED0B4F5802F4E
:101B30000BD0B4F5002F08D0B4F5801F05D0B4F554
:101B4000001F02D0B4F5800F00D103E0E02143A0D4
:101B5000FEF73EFC3F4814300068204008B10125E4
:101B600000E00025284670BD10B50446E00DC00514
:101B700008B904B103E0F62138A0FEF729FC354886
:101B80001430046010BD70B5044600250026012CF9
:101B90003AD0022C38D0042C36D0082C34D0102C5B
:101BA00032D0202C30D0402C2ED0802C2CD0B4F52C
:101BB000807F29D0B4F5007F26D0B4F5806F23D084
:101BC000B4F5006F20D0B4F5805F1DD0B4F5005F90
:101BD0001AD0B4F5804F17D0B4F5004F14D0B4F537
:101BE000803F11D0B4F5003F0ED0B4F5802F0BD05C
:101BF000B4F5002F08D0B4F5801F05D0B4F5001F50
:101C000002D0B4F5800F00D104E04FF4837113A02B
:101C1000FEF7DEFB0F48006800EA04060D481430AA
:101C20000068204010B10EB1012500E000252846D3
:101C300070BD10B50446E00DC00508B904B104E05C
:101C400040F21D1105A0FEF7C3FB024814300460EA
:101C500010BD0000003C0140FFFF7F002E2E5C4CB9
:101C600069627261726965735C53544D33324634F4
:101C700078785F5374645065726970685F44726904
:101C80007665725C7372635C73746D33326634783C
:101C9000785F657874692E630000000010B5044613
:101CA0006CB1012C0BD0022C09D0032C07D0042CD2
:101CB00005D0052C03D0062C01D0072C00D103E061
:101CC000A921EFA0FEF784FBFD490C7010BD10B5F3
:101CD00004460CB1012C00D103E0B821E8A0FEF7C6
:101CE00077FB34B1F648006840F48070F44908602E
:101CF00005E0F348006820F48070F149086010BDE9
:101D000010B504460CB1012C00D103E0CE21DCA0BB
:101D1000FEF75EFB34B1EA48006840F40070E84921
:101D2000086005E0E648006820F40070E4490860B7
:101D300010BD10B504460CB1012C00D103E0E32125
:101D4000CFA0FEF745FB34B1DD48006840F4806069
:101D5000DB49086005E0DA48006820F48060D84973
:101D6000086010BDD648006840F40060D44908609F
:101D70007047D348006840F48050D14908607047EC
:101D8000CF481030006800F0004028B1CD48CC4961
:101D9000091D0860CC4808607047C94810300068C9
:101DA00040F00040C6491031086070470820C4491F
:101DB0000C31096801F48031B1F5803F01D1012077
:101DC00018E0BF490C31096801F0100109B1052084
:101DD00010E0BB490C31096801F0EF0109B10620A0
:101DE00008E0B7490C31096801F0020109B1072088
:101DF00000E00820704708B508200090FFF7D6FFE4
:101E0000009002E0FFF7D2FF00909DF8000001284B
:101E1000F8D09DF8000008BD2DE9F04104460D46BC
:101E200000270826ACB1082C13D0102C11D0182C88
:101E30000FD0202C0DD0282C0BD0302C09D0382CD2
:101E400007D0402C05D0482C03D0502C01D0582C62
:101E500000D104E040F25B1189A0FEF7B9FA2DB180
:101E6000012D03D0022D01D0032D00D104E04FF449
:101E7000AE7183A0FEF7ACFA0DB9002709E0012D81
:101E800001D12F0205E0022D01D12F0201E04FF414
:101E90004077FFF7B0FF0646082E2DD18848103056
:101EA000006820F4407086491031086008460068D8
:101EB000384308600846006820F0F80008600846CB
:101EC000006844F0020108437D491031086008466B
:101ED000006840F480300860FFF78DFF06467848C0
:101EE0001030006820F00200754910310860084683
:101EF000006820F0F80008603046BDE8F08170B559
:101F0000044600260825FFF776FF05462CB1012C74
:101F100003D0022C01D0032C00D104E040F29D112B
:101F200057A0FEF755FA0CB9002609E0012C01D1A3
:101F3000260205E0022C01D1260201E04FF4407692
:101F4000082D20D15E481030006820F440705C49B4
:101F50001031086008460068304308600846006891
:101F600040F0040008600846006840F480300860D3
:101F7000FFF741FF054652481030006820F004008A
:101F80004F4910310860284670BD2DE9F0410446E4
:101F900015461E460827B4F1006F02D34B48844211
:101FA00005D34B48844203D34A48844200D204E01C
:101FB0004FF4E87132A0FEF70BFAFFF71CFF07465B
:101FC000082F1ED13E481030006820F440703C4974
:101FD000103108600846006840F440700860084608
:101FE000006840F00100086025606660FFF703FFAD
:101FF000074633481030006820F0010030491031A6
:1020000008603846BDE8F08170B504460D460826E4
:10201000B4F1006F02D32D48844205D32C4884428A
:1020200003D32C48844200D204E04FF4FB7114A087
:10203000FEF7CEF9FFF7DFFE0646082E1DD1204839
:102040001030006820F440701D49103108600846C7
:10205000006840F4007008600846006840F0010025
:1020600008602560FFF7C7FE064615481030006877
:1020700020F00100124910310860304670BD0000A8
:102080002E2E5C4C69627261726965735C53544DAB
:102090003332463478785F5374645065726970687F
:1020A0005F4472697665725C7372635C73746D33DE
:1020B00032663478785F666C6173682E6300000066
:1020C000003C024023016745AB89EFCDFFFF0F08BD
:1020D0000078FF1F0F7AFF1F70B504460D460826D3
:1020E000B4F1006F02D3CE48844205D3CD48844278
:1020F00003D3CD48844200D205E04FF40771AFF21C
:102100008000FEF765F9FFF776FE0646082E19D126
:10211000C648006820F44070C4490860084600685A
:1021200040F4807008600846006840F001000860D4
:102130002580FFF760FE0646BC48006820F00100DD
:10214000BA490860304670BD70B504460D46082691
:10215000B4F1006F02D3B248844205D3B14884423F
:1021600003D3B148844200D205E040F24221AFF2ED
:10217000F000FEF72DF9FFF73EFE0646082E17D1B8
:10218000AA48006820F44070A84908600846006822
:1021900008600846006840F0010008602570FFF7FD
:1021A0002AFE0646A148006820F001009F49086009
:1021B000304670BD9D48001D006800F0010028B148
:1021C0009B489A49083908609A48086070479748C0
:1021D000001D006840F001009449091D0860704727
:1021E00070B504460D460826200B000308B904B15B
:1021F00005E040F2B621AFF27810FEF7E9F80DB134
:10220000012D00D105E040F2B721AFF28C10FEF7AE
:10221000DFF8FFF7F0FD0646082E10D13DB18348E8
:10222000801D0088A0438149891D088007E07F4800
:10223000801D0088A1B208437C49891D088070BDBB
:1022400070B504460825AA2C01D0552C00D105E014
:1022500040F2D921AFF2D810FEF7BAF8FFF7CBFD64
:102260000546082D02D17148401D047070BD2DE94E
:10227000F04104460D461646FF274FF00808202C73
:1022800000D004B905E040F2FA21AFF20C20FEF7CD
:102290009FF8402D00D005B905E040F2FB21AFF2D8
:1022A0002020FEF795F8802E00D006B905E04FF407
:1022B0003F71AFF23420FEF78BF8FFF79CFD8046AC
:1022C000B8F1080F0BD15948001D007800F00F0736
:1022D00045EA0700304320435449091D0870BDE812
:1022E000F08110B50446082C04D0042C02D00CB1A7
:1022F0000C2C00D105E04FF44671AFF27C20FEF7C4
:1023000067F84A48001D007820F00C004749091D75
:102310000870084600782043087010BD00B50822F8
:102320004248001D007840F002004049091D087035
:10233000FFF761FD0246104600BD3C48001D0068E5
:10234000C0F3471070473948801D0088704700204F
:102350003649491D0978AA2901D0012000E0002052
:1023600070473248001D007800F00C00704770B5CF
:1023700004460D4624F0407008B904B105E040F26F
:102380008A31AFF20430FEF723F80DB1012D00D1F0
:1023900005E040F28B31AFF21830FEF719F82DB19D
:1023A0002248006820432149086004E01F48006873
:1023B000A0431E49086070BD70B504460025012C7D
:1023C0000CD0022C0AD0102C08D0202C06D0402C87
:1023D00004D0802C02D0B4F5803F00D105E040F25B
:1023E000AA31AFF26430FDF7F3FF1048001F006818
:1023F000204008B1012500E00025284670BD10B539
:10240000044624F0F30008B904B105E040F2C731F6
:10241000AFF29430FDF7DCFF0448001F046010BDEC
:10242000FFFF0F080078FF1F0F7AFF1F103C0240CC
:102430003B2A19087F6E5D4C10B50446FA48844269
:1024400017D0FA48844214D0F948844211D0F94890
:1024500084420ED0F84884420BD0F848844208D019
:10246000F748844205D0F748844202D0F6488442B7
:1024700000D103E07B21F5A0FDF7AAFFEA488442E2
:1024800008D10121084601F08DF90021012001F059
:1024900089F95EE0E548844208D10121022001F07B
:1024A00081F90021022001F07DF952E0E0488442E8
:1024B00008D10121042001F075F90021042001F068
:1024C00071F946E0DB48844208D10121082001F07F
:1024D00069F90021082001F065F93AE0D648844204
:1024E00008D10121102001F05DF90021102001F038
:1024F00059F92EE0D148844208D10121202001F071
:1025000051F90021202001F04DF922E0CC4884420D
:1025100008D10121402001F045F90021402001F0BF
:1025200041F916E0C748844208D10121802001F01A
:1025300039F90021802001F035F90AE0C2488442CF
:1025400007D10121801501F02DF90021A01501F01E
:1025500029F910BD2DE9F04104460D46002600275B
:10256000B046B148844217D0B048844214D0B04835
:10257000844211D0AF4884420ED0AF4884420BD081
:10258000AE48844208D0AE48844205D0AD4884426B
:1025900002D0AD48844200D103E0BB21ABA0FDF7DF
:1025A00017FF002010B9286800B103E0BC21A7A0E4
:1025B000FDF70EFF287940B12879012805D0287948
:1025C000022802D02879032800D103E0BD219FA072
:1025D000FDF7FEFEE87928B1E879012802D0E87914
:1025E000022800D103E0BE2198A0FDF7F1FE0026ED
:1025F00057E0012000FA06F7286800EA0708B84506
:102600004ED12068720003219140884320602879D0
:10261000710088402168084320602879012802D091
:102620002879022830D1687940B16879012805D02D
:102630006879022802D06879032800D103E0D0210C
:1026400082A0FDF7C5FEA068720003219140884377
:10265000A060687971008840A1680843A060A879EB
:1026600010B1A879012800D103E0D72177A0FDF7A8
:10267000AFFE61680120B040814361606068A97964
:10268000B14089B208436060E06872000321914064
:102690008843E060E87971008840E1680843E060C1
:1026A000761C102EA5D3BDE8F0814FF6FF710160B6
:1026B0000021017141718171C171704738B50446C3
:1026C0000D464FF4803000905748844217D0574849
:1026D000844214D05648844211D0564884420ED0C9
:1026E000554884420BD05548844208D0544884420F
:1026F00005D05448844202D05348844200D104E0BB
:102700004FF4827151A0FDF763FE002008B905B1B6
:1027100004E040F205114DA0FDF75AFE0098284351
:1027200000900098E061E5610098E061E069009048
:10273000E069009038BD70B505460C4600263A4861
:10274000854217D03948854214D03948854211D086
:10275000384885420ED0384885420BD037488542EC
:1027600008D03748854205D03648854202D03648E1
:10277000854200D104E04FF4987134A0FDF728FEA3
:10278000012C25D0022C23D0042C21D0082C1FD0C2
:10279000102C1DD0202C1BD0402C19D0802C17D0F1
:1027A000B4F5807F14D0B4F5007F11D0B4F5806FFC
:1027B0000ED0B4F5006F0BD0B4F5805F08D0B4F53F
:1027C000005F05D0B4F5804F02D0B4F5004F00D1C2
:1027D00004E040F231111DA0FDF7FAFD2869204008
:1027E00008B1012600E00026304670BD10B5044651
:1027F0000D48844217D00D48844214D00C488442BE
:1028000011D00C4884420ED00B4884420BD00B48A8
:10281000844208D00A48844205D00A48844202D043
:102820000948844232D137E00000024000040240EF
:1028300000080240000C0240001002400014024058
:1028400000180240001C0240002002402E2E5C4C6A
:1028500069627261726965735C53544D33324634F8
:1028600078785F5374645065726970685F44726908
:102870007665725C7372635C73746D333266347840
:10288000785F6770696F2E63000000004FF4A371DA
:10289000AFF24800FDF79CFD206980B210BD70B515
:1028A00005460C460026FE48854217D0FD48854265
:1028B00014D0FD48854211D0FC4885420ED0FC481A
:1028C00085420BD0FB48854208D0FB48854205D0A5
:1028D000FA48854202D0FA48854200D105E040F22C
:1028E0005711AFF29800FDF773FD012C25D0022C93
:1028F00023D0042C21D0082C1FD0102C1DD0202C2C
:102900001BD0402C19D0802C17D0B4F5807F14D068
:10291000B4F5007F11D0B4F5806F0ED0B4F5006F20
:102920000BD0B4F5805F08D0B4F5005F05D0B4F5E6
:10293000804F02D0B4F5004F00D105E04FF4AC71E8
:10294000AFF2F800FDF744FD6869204008B10126A8
:1029500000E00026304670BD10B50446D0488442E1
:1029600017D0D048844214D0CF48844211D0CF48E9
:1029700084420ED0CE4884420BD0CE48844208D048
:10298000CD48844205D0CD48844202D0CC48844210
:1029900000D105E040F26D11AFF25010FDF718FDC7
:1029A000606980B210BD70B504460D46BC488442D3
:1029B00017D0BC48844214D0BB48844211D0BB48D5
:1029C00084420ED0BA4884420BD0BA48844208D020
:1029D000B948844205D0B948844202D0B8488442FC
:1029E00000D105E040F27F11AFF2A010FDF7F0FC3E
:1029F000002008B905B105E04FF4C071AFF2B41082
:102A0000FDF7E6FC258370BD70B504460D46A4486D
:102A1000844217D0A348844214D0A348844211D0E2
:102A2000A24884420ED0A24884420BD0A1488442DE
:102A300008D0A148844205D0A048844202D0A048D2
:102A4000844200D105E04FF4C971AFF20020FDF7D8
:102A5000BFFC002008B905B105E040F29311AFF2C8
:102A60001420FDF7B5FC658370BD70B505460C46B6
:102A700016468B48854217D08A48854214D08A482A
:102A8000854211D0894885420ED0894885420BD0B5
:102A90008848854208D08848854205D087488542C5
:102AA00002D08748854200D105E04FF4D371AFF2E0
:102AB0006420FDF78DFC012C25D0022C23D0042CA2
:102AC00021D0082C1FD0102C1DD0202C1BD0402C26
:102AD00019D0802C17D0B4F5807F14D0B4F5007FC6
:102AE00011D0B4F5806F0ED0B4F5006F0BD0B4F5F3
:102AF000805F08D0B4F5005F05D0B4F5804F02D0F8
:102B0000B4F5004F00D105E040F2A711AFF2C420A8
:102B1000FDF75EFC0EB1012E00D105E04FF4D4713B
:102B2000AFF2D820FDF754FC0EB12C8300E06C838B
:102B300070BD70B504460D465948844217D05948B7
:102B4000844214D05848844211D0584884420ED050
:102B5000574884420BD05748844208D05648844294
:102B600005D05648844202D05548844200D105E041
:102B700040F2BD11AFF22C30FDF72AFC656170BD4B
:102B800070B504460D464648844217D045488442F5
:102B900014D04548844211D0444884420ED0444861
:102BA00084420BD04348844208D04348844205D035
:102BB0004248844202D04248844200D105E040F2BB
:102BC000CB11AFF27830FDF703FC606968406061BB
:102BD00070BD2DE9F04106460D4614460027B84663
:102BE0002F48864217D02F48864214D02E4886425E
:102BF00011D02E4886420ED02D4886420BD02D484B
:102C0000864208D02C48864205D02C48864202D005
:102C10002B48864200D105E040F21721AFF2D430B4
:102C2000FDF7D6FBEDB1012D1BD0022D19D0032DE0
:102C300017D0042D15D0052D13D0062D11D0072D3A
:102C40000FD0082D0DD0092D0BD00A2D09D00B2D3A
:102C500007D00C2D05D00D2D03D00E2D01D00F2D3A
:102C600000D105E04FF40671AFF22040FDF7B0FB54
:102C700044B3092C45D02CB324B31CB314B3012C9A
:102C80003FD03ED0022C3CD03BD03AD0032C38D0A1
:102C9000042C36D035D034D0052C32D031D012E0CF
:102CA000000002400004024000080240000C024004
:102CB000001002400014024000180240001C0240B4
:102CC000002002401DE0092C1BD0062C19D0092C35
:102CD00017D0072C15D014D013D0082C11D010D039
:102CE0000FD0092C0DD00CD00A2C0AD009D00B2CF7
:102CF00007D00C2C05D004D003D00D2C01D00F2C04
:102D000000D105E040F21921AFF2C040FDF760FBB1
:102D10006807C00E04FA00F7E91006F1200050F829
:102D200021006907CA0E0F2191408843EA1006F17D
:102D3000200141F82200E91006F1200050F821009E
:102D400040EA0708E91006F1200040F82180BDE8BC
:102D5000F081000010B5044645F25550844200D081
:102D600004B903E0842124A0FDF732FB324804605B
:102D700010BD10B504465CB1012C09D0022C07D05F
:102D8000032C05D0042C03D0052C01D0062C00D137
:102D900003E0982118A0FDF71BFB2748446010BDF5
:102DA00010B50446B4F5805F00DA03E0A52112A057
:102DB000FDF70EFB2048846010BD4AF6AA201E498C
:102DC000086070474CF6CC401B490860704770B5EE
:102DD00004460025012C01D0022C00D103E0EA2199
:102DE00005A0FDF7F5FA1448C068204008B1012598
:102DF00000E00025284670BD2E2E5C4C6962726191
:102E0000726965735C53544D3332463478785F533E
:102E100074645065726970685F4472697665725C4B
:102E20007372635C73746D3332663478785F69777C
:102E300064672E630000000000300040F94800681D
:102E400040F00100F74908600020F64908310860A9
:102E5000F4480068F4490840F2490860F348091D45
:102E60000860081F006820F48020091F0860002007
:102E7000EC490C310860704710B504461CB1012CB8
:102E800001D0052C00D103E0F021E9A0FDF7A0FA64
:102E90000020E449891C08700846047010BD2DE923
:102EA000F0410446002500260027212C17D0312CA4
:102EB00015D0392C13D0412C11D0612C0FD0792C86
:102EC0000DD07A2C0BD07B2C09D07C2C07D07D2CFC
:102ED00005D07E2C03D07F2C01D03B2C00D104E008
:102EE00040F29C61D2A0FDF773FA6511012D02D169
:102EF000CC48066808E0022D03D1CA487030066845
:102F000002E0C8487430066804F01F050120A8409C
:102F1000304008B1012700E000273846BDE8F081C5
:102F200038B5002000900024002500BF3120FFF7B5
:102F3000B6FF05460098401C00900098B0F5A06FC1
:102F400001D0002DF2D03120FFF7A9FF08B10124F4
:102F500000E00024204638BD70B5044600251F2C33
:102F600000DC04E04FF49471B1A0FDF731FAAD48F4
:102F7000056825F0F80545EAC405056070BD10B583
:102F800004460CB1012C00D104E040F24B11A8A082
:102F9000FDF71EFAB548046010BD10B504461CB11B
:102FA000012C01D0042C00D104E04FF4B271A0A098
:102FB000FDF70EFA00209B49703108700870012C53
:102FC00002D0042C0AD104E0012096497031087027
:102FD00005E0052093497031087000E000BF00BF94
:102FE00010BD10B504460CB1012C00D104E04FF423
:102FF000C6718FA0FDF7ECF99D48046010BD2DE966
:10300000F04105460F4616461C46DDF8188015B1FE
:10301000B5F5800F00D104E040F2B71184A0FDF7B0
:10302000D7F93F2F00D804E04FF4DC7180A0FDF702
:10303000CFF9C02E03D3B6F5D87F00D804E040F214
:10304000B9117BA0FDF7C4F9022C05D0042C03D0E4
:10305000062C01D0082C00D104E04FF4DD7174A0DF
:10306000FDF7B6F9B8F1040F03D3B8F10F0F00D88C
:1030700004E040F2BB116EA0FDF7AAF947EA861002
:103080000121C1EB540140EA0140284340EA0860B5
:103090006449091D0860BDE8F08110B504460CB113
:1030A000012C00D104E04FF4E77161A0FDF790F925
:1030B0006E48046610BD70B505460C46C02D03D39E
:1030C000B5F5D87F00D804E04FF4F47158A0FDF7AF
:1030D0007FF9022C02D3072C00D804E040F2E9115A
:1030E00053A0FDF775F9A80140EA04704D498431F9
:1030F000086070BD10B504460CB1012C00D104E08D
:1031000040F2F7114AA0FDF763F95848846610BDF4
:1031100010B504460CB1012C00D104E040F20921A5
:1031200043A0FDF755F95148C46410BD70B505467C
:103130000C46002645B1B5F5001F05D0B5F5800F4A
:1031400002D0B5F5C00F00D104E04FF4097138A0EA
:10315000FDF73EF95CB1B4F1806F08D0B4F1A06F17
:1031600005D0B4F1C06F02D0B4F1E06F00D104E03B
:1031700040F225212EA0FDF72BF92A4808300668D9
:1031800026F0EC6645EA040006432648083006604F
:1031900070BD70B505460C46002645B1B5F1804FAF
:1031A00005D0B5F1004F02D0B5F1404F00D104E099
:1031B00040F24A211EA0FDF70BF95CB1B4F1005FAB
:1031C00008D0B4F1205F05D0B4F1405F02D0B4F173
:1031D000605F00D104E040F24B2115A0FDF7F8F844
:1031E00010480830066826F0784645EA0400064391
:1031F0000C480830066070BD70B5044600251CB14F
:10320000012C01D0022C00D104E04FF42D7108A054
:10321000FDF7DEF803480830056825F0030525436F
:10322000056070BD00380240FFFFF6FE103000243C
:103230002E2E5C4C69627261726965735C53544DE9
:103240003332463478785F537464506572697068BD
:103250005F4472697665725C7372635C73746D331C
:1032600032663478785F7263632E630000004742F1
:10327000800E4742F948006800F00C00704770B5B6
:10328000044600257CB1802C0DD0902C0BD0A02CB6
:1032900009D0B02C07D0C02C05D0D02C03D0E02C06
:1032A00001D0F02C00D105E040F2E921AFF280001E
:1032B000FDF78EF8E948056825F0F005254305601F
:1032C00070BD70B5044600255CB1B4F5805F08D0D0
:1032D000B4F5A05F05D0B4F5C05F02D0B4F5E05FEF
:1032E00000D105E040F20931AFF2BC00FDF770F803
:1032F000DA48056825F4E0552543056070BD70B5D2
:10330000044600255CB1B4F5805F08D0B4F5A05F39
:1033100005D0B4F5C05F02D0B4F5E05F00D105E0A0
:103320004FF44A71AFF2F800FDF752F8CB48056848
:1033300025F4604545EAC405056070BDF0B500217F
:1033400000220024022500260223C44F3F6807F014
:103350000C0121B1042905D0082937D105E0C04F5F
:10336000076036E0BF4F076033E0BC4F3F1F3F6848
:10337000C7F38056B94F3F1F3F6807F03F036EB158
:10338000B84FB7FBF3F7DFF8D4C2ACF1040CDCF8AC
:1033900000C0CCF3881C07FB0CF40CE0B04FB7FB6B
:1033A000F3F7DFF8B8C2ACF1040CDCF800C0CCF3E2
:1033B000881C07FB0CF4A94F3F1F3F68C7F3014768
:1033C0007F1C7D00B4FBF5F7076002E0A44F0760A7
:1033D00000BF00BFA14F3F6807F0F0010909A24FED
:1033E0007A5C0768D74047609C4F3F6807F4E0511C
:1033F000890A9D4F7A5C4768D7408760974F3F683E
:1034000007F46041490B984F7A5C4768D740C76022
:10341000F0BD70B504460025B4F5807F5CD0B4F5EE
:10342000007F59D09148844256D09148844253D06D
:103430009048844250D0904884424DD08F48844276
:103440004AD08F48844247D08E48844244D08E4828
:10345000844241D08D4884423ED08D4884423BD046
:103460008C48844238D08C48844235D08B48844282
:1034700032D08B4884422FD08A4884422CD08A484C
:10348000844229D08948844226D08948844223D066
:103490008848844220D0884884421DD0874884428E
:1034A0001AD08748844217D08648844214D0864870
:1034B000844211D0854884420ED0854884420BD086
:1034C0008448844208D08448844205D0834884429A
:1034D00002D08348844200D105E040F2D931AFF2F6
:1034E000B020FCF775FF04F44070B0F5407F09D1BF
:1034F0005A48056825F4F8157A4904EA010005439D
:1035000056480560554868300068C4F30B0108430D
:1035100052496831086070BD10B504460CB1012CE9
:1035200000D105E040F2F731AFF2FC20FCF750FF8C
:103530006D48046010BD10B504460CB1012C00D1DB
:1035400005E04FF48161AFF21830FCF741FF6648A7
:10355000001D046010BD10B504460CB1012C00D153
:1035600005E040F21941AFF23830FCF731FF5F4817
:10357000046010BD70B504460D465D48204008B992
:1035800004B105E04FF48861AFF25C30FCF720FF36
:103590000DB1012D00D105E040F24241AFF2703093
:1035A000FCF716FF3DB12D482830006820432B4919
:1035B0002831086006E0294828300068A0432749E0
:1035C0002831086070BD70B504460D4624F0F10046
:1035D00008B904B105E04FF48C61AFF2AC30FCF7F0
:1035E000F7FE0DB1012D00D105E040F26141AFF2CF
:1035F000C030FCF7EDFE3DB118482C300068204388
:1036000016492C31086006E014482C300068A043AD
:1036100012492C31086070BD70B504460D4624F087
:10362000010008B904B105E040F27B41AFF200406F
:10363000FCF7CEFE0DB1012D00D105E040F27C413A
:10364000AFF21440FCF7C4FE3DB1044830300068CE
:10365000204302493031086051E04BE00838024015
:103660000024F40000127A0014000010000302008D
:10367000000303000003040000030500000306002C
:1036800000030700000308000003090000030A000C
:1036900000030B0000030C0000030D0000030E00EC
:1036A00000030F00000310000003110000031200CC
:1036B00000031300000314000003150000031600AC
:1036C00000031700000318000003190000031A008C
:1036D00000031B0000031C0000031D0000031E006C
:1036E00000031F00FFFCFF0F3C0E47425C014742F6
:1036F00000EE8B81F8480068A043F749086070BD70
:1037000070B504460D46F548204008B904B105E0FF
:1037100040F2AD41AFF2E840FCF75AFE0DB1012D89
:1037200000D105E040F2AE41AFF2FC40FCF750FEA4
:103730003DB1E948083000682043E7490831086096
:1037400006E0E54808300068A043E3490831086016
:1037500070BD70B504460D46E148204008B904B17B
:1037600005E040F2D541AFF23850FCF731FE0DB123
:10377000012D00D105E040F2D641AFF24C50FCF7EC
:1037800027FE3DB1D4480C3000682043D2490C31AB
:10379000086006E0D0480C300068A043CE490C31E8
:1037A000086070BD70B504460D46CE48204008B98B
:1037B00004B105E040F2FC41AFF28C50FCF708FE8A
:1037C0000DB1012D00D105E040F2FD41AFF2A05056
:1037D000FCF7FEFD3DB1C048283800682043BE49D3
:1037E0002839086006E0BC4828380068A043BA4978
:1037F0002839086070BD70B504460D4624F0F1000C
:1038000008B904B105E040F21951AFF2DC50FCF701
:10381000DFFD0DB1012D00D105E040F21A51AFF2EC
:10382000F050FCF7D5FD3DB1AB482438006820438B
:10383000A9492439086006E0A74824380068A04355
:10384000A5492439086070BD70B504460D4624F0C2
:10385000010008B904B105E040F23151AFF2306027
:10386000FCF7B6FD0DB1012D00D105E040F232515B
:10387000AFF24460FCF7ACFD3DB1974820380068DA
:10388000204395492039086006E0934820380068B5
:10389000A04391492039086070BD70B504460D46BB
:1038A0008E48204008B904B105E04FF4AC61AFF296
:1038B0008060FCF78DFD0DB1012D00D105E040F2D7
:1038C0006151AFF29460FCF783FD3DB18248183836
:1038D0000068204380491839086006E07E4818389F
:1038E0000068A0437C491839086070BD70B5044673
:1038F0000D467D48204008B904B105E040F28451EE
:10390000AFF2D460FCF764FD0DB1012D00D105E0EC
:1039100040F28551AFF2E860FCF75AFD3DB16E48C8
:103920001438006820436C491439086006E06A487E
:1039300014380068A04368491439086070BD70B538
:1039400004460D466948204008B904B105E040F23C
:10395000B251AFF22470FCF73BFD0DB1012D00D147
:1039600005E040F2B351AFF23870FCF731FD3DB1E4
:10397000594818300068204357491831086006E05C
:10398000554818300068A04353491831086070BD8D
:1039900070B504460D4624F0F10008B904B105E005
:1039A00040F2D251AFF27870FCF712FD0DB1012D4B
:1039B00000D105E040F2D351AFF28C70FCF708FD66
:1039C0003DB145481C300068204343491C31086024
:1039D00006E041481C300068A0433F491C310860A4
:1039E00070BD70B504460D4624F0010008B904B15D
:1039F00005E040F2ED51AFF2C870FCF7E9FC0DB103
:103A0000012D00D105E040F2EE51AFF2DC70FCF781
:103A1000DFFC3DB130482030006820432E49203182
:103A2000086006E02C4820300068A0432A49203175
:103A3000086070BD70B504460D462848204008B99E
:103A400004B105E040F21F61AFF61C00FCF7C0FCBA
:103A50000DB1012D00D105E04FF4C461AFF6300087
:103A6000FCF7B6FC3DB11C482830006820431A49D9
:103A70002831086006E0184828300068A04316493D
:103A80002831086070BD70B504460D4614482040CA
:103A900008B904B105E040F24761AFF66C00FCF7ED
:103AA00097FC0DB1012D00D105E04FF4C961AFF6CF
:103AB0008000FCF78DFC3DB107482C3000682043A6
:103AC00005492C31086006E003482C300068A0430B
:103AD00001492C31086070BD38380240003601C9F8
:103AE000CCA0F8FF00EE9FDDCCA6F8FF006E988119
:103AF00070B504460D4604F0C00008B904B105E0F5
:103B000040F27461AFF6D800FCF762FC0DB1012DF4
:103B100000D105E040F27561AFF6EC00FCF758FC0F
:103B20002DB12448007820432249087004E0214840
:103B30000078A0431F49087070BD1E4867300068B8
:103B400040F080701B4967310860704770B50446CB
:103B50000025012C0BD0022C09D0042C07D0082CF6
:103B600005D0102C03D0802C01D0202C00D105E0F2
:103B700040F2DA61AFF64810FCF72AFC0D48401E0F
:103B80000068204008B1012500E00025284670BDEE
:103B900010B5044604F0400008B904B105E040F255
:103BA000F961AFF67410FCF713FC0248401C047076
:103BB00010BD00000D38024008B500220092002020
:103BC0000021CA22FB4B1A6053221A60F94A183AA4
:103BD000126822F0A002F74B183B1A6000BFF54AAA
:103BE000183A126802F02001009A521C0092009AC2
:103BF000B2F5003F01D00029F1D0EE4A183A126820
:103C000002F020020AB1012000E00020FF22E94B6F
:103C10001A6008BD08B50022009200200021E54A84
:103C2000183A126802F04002E2B9421EE14B183B1A
:103C30001A6000BFDF4A183A126802F04001009A89
:103C4000521C0092009AB2F5803F01D00029F1D0B9
:103C5000D84A183A126802F040020AB1012002E084
:103C6000002000E0012008BD38B5002000900024AD
:103C70000025CA20CF49086053200860FFF7CAFF1B
:103C800000B947E00020CB492439086042F2011016
:103C9000091D0860081D006800F00700091D086084
:103CA00000BFC4481838006800F004040098401CA5
:103CB00000900098B0F5803F01D0002CF1D0BD48B5
:103CC0001838006800F0040008B9002522E0B9485F
:103CD0001C3800680020B7491C3908604FF6FF7097
:103CE000B44910390860B448091F08600020B14980
:103CF0000C390860091D0860091D0860AD491839B4
:103D00000860AC491C310860FFF756FF08B9002570
:103D100000E00125FF20A7490860284638BDA548D6
:103D20001838006820F08000A249183908607047F0
:103D300070B5044600252068402801D0206800B9ED
:103D400004E04FF4E1719DA0FCF742FB60687F281E
:103D500000D804E040F2C31198A0FCF739FBA0683A
:103D6000B0F5004F00D204E04FF4E27193A0FCF7ED
:103D70002FFBCA208F49086053200860FFF74AFFD5
:103D800008B900251DE08B481C38006820F0400071
:103D900088491C390860084600682168084385493D
:103DA0001C39086083491439A06808600846006817
:103DB000A18840EA01407F4914390860FFF7AFFF4E
:103DC0000125FF207B490860284670BD0021016065
:103DD0007F214160FF218160704710B504460CB11E
:103DE000012C00D104E04FF4017174A0FCF7F0FA4B
:103DF0001CB1FF206F49086004E0CA206D490860CB
:103E00005320086010BD70B5044600250CB1012C8C
:103E100000D104E040F28F2168A0FCF7D9FACA2053
:103E20006449086053200860FFF7F4FE08B90025D4
:103E300014E044B15F481C38006840F010005D4950
:103E40001C39086007E05B481C38006820F010004F
:103E500058491C390860FFF762FF0125FF205549CA
:103E60000860284670BD10B504460CB1012C00D185
:103E700004E040F2BD2151A0FCF7AAFACA204D4946
:103E800008605320086044B14A481C38006840F07C
:103E9000200048491C39086007E046481C38006883
:103EA00000F0DF0043491C390860FF2041490860E9
:103EB00010BD0146002204E0501CC2B2A1F10A006C
:103EC000C1B20A29F8DA100741EA106070470146CA
:103ED00000BF080900EB8000420001F00F00104411
:103EE000C0B270472DE9F04105460C460026002778
:103EF0000DB1012D00D104E040F2F7212FA0FCF715
:103F000067FA002D3CD12B481C38006800F04000B7
:103F1000002817D02078002803DD20780C2800DC4A
:103F200004E040F2FD2125A0FCF752FAE07810B140
:103F3000E078402800D110E040F2FE211FA0FCF7FD
:103F400047FA0AE00020E0702078172800DC04E03F
:103F500040F2033119A0FCF73BFA60783B2800DC03
:103F600004E040F2053115A0FCF732FAA0783B28B6
:103F700000DC6EE040F2063110A0FCF729FA68E0A0
:103F80000C481C38006800F0400000283BD0207826
:103F9000FFF79DFF064616B10C2E00D804E040F254
:103FA0000D3106A0FCF714FAE07810B1E078402853
:103FB00022D136E024280040FF007F002E2E5C4CEA
:103FC00069627261726965735C53544D3332463471
:103FD00078785F5374645065726970685F44726981
:103FE0007665725C7372635C73746D3332663478B9
:103FF000785F7274632E630040F20E31AFF24400BA
:10400000FCF7E6F90DE00020E0702078FFF75FFF95
:10401000172800DC05E040F21331AFF26000FCF736
:10402000D7F96078FFF753FF3B2800DC05E040F24A
:104030001531AFF27800FCF7CBF9A078FFF747FF16
:104040003B2800DC05E040F21631AFF29000FCF7AF
:10405000BFF955B120780004617840EA0120A178C9
:104060000843E17840EA014611E02078FFF721FF9C
:104070004FEA00486078FFF71CFF48EA0028A07864
:10408000FFF717FF48EA0008E07848EA0046CA2030
:10409000F949086053200860FFF7BCFD08B9002704
:1040A0000CE0F6483040F44924390860FFF737FE49
:1040B000FFF782FD08B9002700E00127FF20EE4945
:1040C00008603846BDE8F0810021C1700170417080
:1040D0008170704770B505460C4600260DB1012D64
:1040E00000D105E040F26931AFF23010FCF770F911
:1040F000E14824380068E14900EA0106C6F30540BA
:104100002070C6F30620607006F07F00A07006F4F1
:104110008000000CE0705DB92078FFF7D8FE2070B9
:104120006078FFF7D4FE6070A078FFF7D0FEA07033
:1041300070BD0020D049091D0868CF4920390968A1
:1041400070472DE9F04105460C46002600270DB1C9
:10415000012D00D105E04FF46971AFF2A010FCF71A
:1041600037F94DB9607800F01000102804D160785C
:1041700020F010000A306070002D24D1E078632810
:1041800000DC05E04FF46B71AFF2D010FCF720F9C2
:104190006078012803DB60780C2800DC05E040F241
:1041A000AD31AFF2E810FCF713F9A078012803DB7A
:1041B000A0781F2800DC2EE040F2AE31AFF20420E0
:1041C000FCF706F927E0E078FFF781FE632800DCC2
:1041D00005E040F2B231AFF21C20FCF7F9F860784C
:1041E000FFF775FE064616B10C2E00D805E04FF419
:1041F0006D71AFF23820FCF7EBF8A078FFF767FE9F
:10420000064616B11F2E00D805E040F2B631AFF2D7
:104210005420FCF7DDF82078012811D020780228FE
:104220000ED0207803280BD02078042808D02078DE
:10423000052805D02078062802D02078072800D14C
:1042400005E04FF46E71AFF28C20FCF7C1F855B168
:10425000E0780004617840EA0120A17808432178E1
:1042600040EA413611E0E078FFF723FE4FEA0048CC
:104270006078FFF71EFE48EA0028A078FFF719FED5
:1042800048EA0008207848EA4036CA207A4908609F
:1042900053200860FFF7BEFC08B900270CE07848FF
:1042A0003040754920390860FFF739FDFFF784FC7D
:1042B00008B9002700E00127FF206F490860384651
:1042C000BDE8F08101210170817041700021C17051
:1042D000704770B505460C4600260DB1012D00D182
:1042E00005E040F20941AFF22C30FCF771F862486A
:1042F00020380068624900EA0106300CE070C6F31D
:104300000420607006F03F00A070C6F342302070B9
:104310005DB9E078FFF7DBFDE0706078FFF7D7FD6F
:104320006070A078FFF7D3FDA07070BD2DE9F0415B
:1043300006460F46144600250EB1012E00D105E0B9
:1043400040F24541AFF28C30FCF742F8B7F5807F80
:1043500002D0B7F5007F00D105E040F24641AFF250
:10436000A430FCF735F8606800F07F3000B905E054
:1043700040F24741AFF2BC30FCF72AF8A06818B110
:10438000A068B0F1804F00D105E04FF48961AFF231
:10439000D430FCF71DF8002E74D137481C38006863
:1043A00000F04000002819D02078002803DD207894
:1043B0000C2800DC05E040F24E41AFF20040FCF773
:1043C00007F8E07810B1E078402800D112E040F220
:1043D0004F41AFF21840FBF7FBFF0BE00020E0700D
:1043E0002078172800DC05E040F25441AFF2344059
:1043F000FBF7EEFF60783B2800DC05E040F2564119
:10440000AFF24840FBF7E4FFA0783B2800DC05E072
:1044100040F25741AFF25C40FBF7DAFFA06868B9A1
:10442000207B002803DD207B1F2800DC9AE040F27F
:104430005B41AFF27840FBF7CBFF93E0207B012894
:1044400011D0207B02280ED0207B03280BD0207BAC
:10445000042808D0207B052805D0207B062802D020
:10446000207B072800D17DE040F25F41AFF2B440ED
:10447000FBF7AEFF76E005E0242800407F7F7F0059
:104480003FFFFF00FE48006800F04000D0B12078F8
:10449000FFF71DFD054615B10C2D00D805E040F2D3
:1044A0006741AFF2E840FBF793FFE07810B1E078A6
:1044B000402800D114E04FF48D61AFF20050FBF7BB
:1044C00087FF0DE00020E0702078FFF700FD17283F
:1044D00000DC05E040F26D41AFF22050FBF778FFC1
:1044E0006078FFF7F4FC3B2800DC05E04FF48E61B8
:1044F000AFF23850FBF76CFFA078FFF7E8FC3B28E1
:1045000000DC05E040F27141AFF25050FBF760FF74
:10451000A06870B9207BFFF7DAFC054615B11F2DA6
:1045200000D81FE040F27641AFF27050FBF750FF29
:1045300018E0207BFFF7CBFC0546012D0BD0022DA8
:1045400009D0032D07D0042D05D0052D03D0062D4D
:1045500001D0072D00D105E040F27B41AFF2A4501D
:10456000FBF736FF96B120780004617840EA01201D
:10457000A1780843E17840EA0140217B40EA0160EC
:10458000A1680843616840EA01051BE02078FFF755
:1045900090FC4FEA00486078FFF78BFC48EA00285F
:1045A000A078FFF786FC48EA0008E07848EA00486F
:1045B000207BFFF77EFC48EA0060A1680843616841
:1045C00040EA0105CA20AE491C310860532008604A
:1045D000B7F5807F03D1AA481430056002E0A848EF
:1045E00018300560FF20A6491C310860BDE8F08145
:1045F0000021C170017041708170816001210173DF
:104600000021416070472DE9F04106460F461446EF
:1046100000250EB1012E00D105E040F2D241AFF2EB
:104620006460FBF7D5FEB7F5807F02D0B7F5007F59
:1046300000D105E040F2D341AFF28060FBF7C8FE45
:10464000B7F5807F03D18E481430056802E08C48AE
:1046500018300568C5F305402070C5F3062060706A
:1046600005F07F00A07005F48000000CE070C5F339
:104670000560207305F08040A06005F08030606028
:104680007EB92078FFF723FC20706078FFF71FFCCD
:104690006070A078FFF71BFCA070207BFFF717FC71
:1046A0002073BDE8F081F8B504460D460020009067
:1046B0000026002704F4407000B105E040F20A51E2
:1046C000AFF20870FBF784FE0DB1012D00D105E0BB
:1046D00040F20B51AFF21C70FBF77AFECA2068491A
:1046E0001C3108605320086035B1654800682043DC
:1046F0006349086001271CE061480068A0436049E5
:10470000086000BF5E48001D006800EA142600989B
:10471000401C00900098B0F5803F01D0002EF1D0F1
:104720005748001D006800EA142008B9002700E07F
:104730000127FF2052491C3108603846F8BD2DE999
:10474000F04105460E4614460027B5F5807F02D09D
:10475000B5F5007F00D105E040F26651AFF2A470DC
:10476000FBF736FEB6F5004F00D205E040F2675188
:10477000AFF2B870FBF72CFE64B3B4F1807F29D0A0
:10478000B4F1007F26D0B4F1407F23D0B4F1806F24
:1047900020D0B4F1A06F1DD0B4F1C06F1AD0B4F125
:1047A000E06F17D0B4F1006F14D0B4F1106F11D0D6
:1047B000B4F1206F0ED0B4F1306F0BD0B4F1406F74
:1047C00008D0B4F1506F05D0B4F1606F02D0B4F1ED
:1047D000706F00D105E04FF4AD61AFF62000FBF73C
:1047E000F7FDCA2026491C3108605320086046EABC
:1047F0000407B5F5807F03D121483C30076002E013
:104800001F4840300760FF201D491C310860BDE88B
:10481000F08101460020B1F5807F05D1184A3C3275
:104820001268C2F30E0004E0154A40321268C2F367
:104830000E00704710B504464CB1012C07D0022C75
:1048400005D0032C03D0042C01D0062C00D105E0A8
:1048500040F2BE51AFF69C00FBF7BAFDCA200849F2
:104860001C310860532008600548006820F00700EC
:10487000034908600846006820430860FF2001E003
:1048800008280040FA491C31086010BD10B50446E4
:10489000B4F5803F00D205E040F2D951AFF6E40014
:1048A000FBF796FDCA20F2491C31086053200860CE
:1048B000EF480C300460FF20086010BDEC480C305D
:1048C000006880B27047F8B50446002000900025CB
:1048D00000260CB1012C00D105E040F2FE51AFF6EC
:1048E0002410FBF775FDCA20E1491C3108605320F4
:1048F00008603CB1DE48006840F48060DC49086034
:1049000001261DE0DA48006820F48060D84908607C
:1049100000BFD748001D006800F004050098401C47
:1049200000900098B0F5803F01D0002DF1D0D04824
:10493000001D006800F0040008B9002600E0012610
:10494000FF20CB491C3108603046F8BD70B50546E4
:104950000C46B5F5003F02D0B5F5803F00D105E02B
:1049600040F24761AFF6AC10FBF732FD14B1B4F57D
:10497000802F00D105E04FF4C961AFF6C010FBF7FE
:1049800027FDCA20BA491C31086053200860B84886
:10499000006820F48020B64908600846006845EAAF
:1049A00004010843B2490860FF20B1491C31086086
:1049B00070BDAF48006800F48020704770B50446B1
:1049C0000D4644B1B4F5001F05D0B4F5800F02D0F8
:1049D000B4F5C00F00D105E040F28961AFF62420A4
:1049E000FBF7F6FC15B1B5F5801F00D105E040F2EC
:1049F0008A61AFF63820FBF7EBFCCA209C491C31DA
:104A00000860532008609A48006820F4E000984944
:104A100008600846006844EA0501084394490860B4
:104A2000FF2093491C31086070BD70B504460D46E7
:104A300000260CB1802C00D105E040F2C161AFF638
:104A40008420FBF7C5FC202D00D205E040F2C261B6
:104A5000AFF69820FBF7BCFCCA2085491C310860E2
:104A600053200860FFF7D6F808B9002607E044EAAB
:104A700005007F4910310860FFF751F90126FF203A
:104A80007B491C310860304670BD70B50446002576
:104A90000CB1012C00D105E040F2EA61AFF6E42050
:104AA000FBF796FCCA2072491C310860532008604D
:104AB000FFF7B0F808B9002510E034B16C48006881
:104AC00040F080006A49086005E06948006820F00D
:104AD000800067490860FFF722F90125FF2064493B
:104AE0001C310860284670BD10B504460CB1012C7D
:104AF00000D105E040F21671AFF64030FBF768FCDC
:104B0000CA205B491C3108605320086034B1584802
:104B1000006840F400005649086005E05448006809
:104B200020F4000052490860FF2051491C31086000
:104B300010BD10B5044614B1B4F5002F00D105E046
:104B400040F23671AFF68C30FBF742FCCA20484980
:104B50001C310860532008604548006820F400209C
:104B6000434908600846006820430860FF20404928
:104B70001C31086010BD2DE9F04104460D46164673
:104B80004FF0000800272CB1B4F5005F02D0B4F557
:104B9000804F00D105E040F25F71AFF6E030FBF7E7
:104BA00017FCB5F5004F00D005B905E04FF4EC61F6
:104BB000AFF6F830FBF70CFCB6F5007F00D205E04D
:104BC00040F26171AFF60C40FBF702FCCA202849A5
:104BD0001C310860532008602548001D006800F45F
:104BE000803050B100E07F1C2148001D006800F4B7
:104BF000803010B1B7F5003FF5D11D48001D0068A9
:104C000000F4803040B944EA05003043184934319B
:104C100008604FF0010801E04FF00008FF20144940
:104C20001C3108604046BDE8F08170B504460D4671
:104C300000260CB1082C00D105E04FF4F561AFF669
:104C40008440FBF7C5FB0DB1012D00D105E040F21A
:104C5000A971AFF69840FBF7BBFB0548006840F62A
:104C6000080120EA01062DB144F40060064302E089
:104C7000082800402643CA20F849086053200860ED
:104C8000F6481C380660FF20086070BD2DE9F04131
:104C900006460C4615460027B8460EB1012E00D137
:104CA00005E040F2D571AFF6EC40FBF791FBEB4825
:104CB0000C300068EA4900EA0107E8481030006853
:104CC000E84900EA0108C7F305402070C7F3062051
:104CD000607007F07F00A07007F48000000CE070A7
:104CE0000020E870C8F30420687008F03F00A87046
:104CF000C8F342302870BEB92078FFF7E8F820707A
:104D00006078FFF7E4F86070A078FFF7E0F8A07033
:104D10006878FFF7DCF86870A878FFF7D8F8A87013
:104D20002878FFF7D4F82870BDE8F081CB4814301C
:104D30000068704770B505460C46012D00D105E0AE
:104D400040F62101AFF68C50FBF742FB1CB1012C61
:104D500001D004B100D105E040F62201AFF6A45025
:104D6000FBF736FB44B9BD481C30006820EA45001B
:104D7000BA491C31086007E0B8481C30006840EAB6
:104D80004500B6491C31086070BD70B504460D463B
:104D9000012C00D105E040F63B01AFF6E050FBF7F7
:104DA00017FB0DB1012D00D105E040F63C01AFF637
:104DB000F450FBF70DFB3DB1A8481C3000682043C0
:104DC000A6491C31086006E0A4481C300068A043D6
:104DD000A2491C31086070BD10B5044644B1B4F559
:104DE000006F05D0B4F5805F02D0B4F5C05F00D18C
:104DF00005E040F65A01AFF63C60FBF7E9FA974848
:104E00001C30006820F4C05094491C3108600846EA
:104E100000682043086010BD10B50446A4B1B4F585
:104E2000807F11D0B4F5007F0ED0B4F5407F0BD059
:104E3000B4F5806F08D0B4F5A06F05D0B4F5C06F9D
:104E400002D0B4F5E06F00D105E040F67C01AFF68A
:104E50009460FBF7BDFA81481C30006820F4E060E4
:104E60007E491C310860084600682043086010BD78
:104E700010B5044644B1B4F5005F05D0B4F5804FD9
:104E800002D0B4F5C04F00D105E040F69301AFF673
:104E9000D460FBF79DFA71481C30006820F4C040D4
:104EA0006E491C310860084600682043086010BD48
:104EB00010B504460CB1012C00D105E040F6A70165
:104EC000AFF60870FBF784FA44B164481C30006800
:104ED00040F0800061491C31086007E05F481C30E9
:104EE000006820F080005D491C31086010BD10B5DD
:104EF00004460CB1012C00D105E040F6BE01AFF62E
:104F00004470FBF765FA44B154481C30006820F443
:104F1000004052491C31086007E050481C300068CE
:104F200040F400404D491C31086010BD38B50446BE
:104F30000D46002000902CB3012C23D0022C21D050
:104F4000032C1FD0042C1DD0052C1BD0062C19D0EF
:104F5000072C17D0082C15D0092C13D00A2C11D0EF
:104F60000B2C0FD00C2C0DD00D2C0BD00E2C09D0EF
:104F70000F2C07D0102C05D0112C03D0122C01D0EF
:104F8000132C00D105E040F6E901AFF6D070FBF735
:104F90001FFA32482C300090009800EB84000090FB
:104FA0000098056038BD38B50446002000902CB349
:104FB000012C23D0022C21D0032C1FD0042C1DD077
:104FC000052C1BD0062C19D0072C17D0082C15D077
:104FD000092C13D00A2C11D00B2C0FD00C2C0DD077
:104FE0000D2C0BD00E2C09D00F2C07D0102C05D077
:104FF000112C03D0122C01D0132C00D104E040F668
:10500000FE011948FBF7E4F914482C300090009891
:1050100000EB840000900098006838BD10B504468D
:1050200014B1B4F5803F00D104E040F624110E48DD
:10503000FBF7CEF909481C30006820F4803007499E
:105040001C310860084600682043086010BD10B598
:10505000044614B1B4F5003F08D10CE02428004008
:105060007F7F7F003FFFFF00BC3F020840F6351105
:10507000B148FBF7ADF9B148006820F40030AF4902
:105080000860084600682043086010BD10B504465B
:1050900014B1B4F5802F00D104E040F64811A648C1
:1050A000FBF796F9A548006820F48020A349086022
:1050B000084600682043086010BD2DE9F041044611
:1050C0000D460027002614B1B4F1004F00D104E0D2
:1050D00040F671119848FBF77BF9B5F5004F00D207
:1050E00004E040F672119448FBF772F9CA20934924
:1050F0001C3908605320086090483438006800F07C
:10510000080050B100E0761C8C483438006800F08C
:10511000080010B1B6F5805FF5D1884834380068D2
:1051200000F0080098B985483838006800F0100091
:1051300058B945EA0400814914390860FEF73CFD7E
:1051400008B9002704E0012702E0002700E000275B
:10515000FF207A491C3908603846BDE8F08170B5F7
:1051600004460D462CB14FF2040024EA000000B9B9
:1051700004E040F6E5117048FBF72AF90DB1012D66
:1051800000D104E040F6E6116B48FBF721F9CA2094
:105190006A491C3908605320086085B1674838386F
:1051A000006824F004010843644938390860634802
:1051B000006804F004010843604908600FE05F489C
:1051C0003838006824F0040188435C4938390860A5
:1051D0005A48006804F00401884358490860FF20D9
:1051E00056491C39086070BD70B50446002500267C
:1051F000B4F5805F1DD0B4F5006F1AD0B4F5806FA0
:1052000017D0B4F5007F14D0B4F5807F11D0402CB6
:105210000FD0202C0DD0042C0BD0022C09D0012C47
:1052200007D0B4F5005F04D0B4F5803F01D0082C5E
:1052300000D104E040F616213F48FBF7C9F83F488B
:105240003438006843F6777100EA010606EA040084
:1052500008B1012500E00025284670BD10B50446C0
:105260002CB14FF6207024EA000000B904E040F6AB
:1052700037213148FBF7ACF8A0B240F080002F494D
:105280003439096801F0800161EA00002B493439A2
:10529000086010BD2DE9F0410446002600250027D6
:1052A000B4F5004F0BD0B4F5804F08D0B4F5005FD3
:1052B00005D0B4F5805F02D0B4F5003F00D104E022
:1052C00040F64E211C48FBF783F81C48006800F0AC
:1052D00004051A4838380068204005EAD43140EA0D
:1052E000010716483438006800EA14151FB1A8B247
:1052F00008B1012600E000263046BDE8F08170B517
:10530000044600251CB124F43C3000B904E040F60A
:1053100075210948FBF75CF82509A8B240F0800028
:1053200006493439096801F0800161EA0000034947
:105330003439086070BD0000BC3F020840280040BE
:1053400010B50446F948844205D0F948844202D099
:10535000F848844200D103E0DD21F7A0FBF738F8DC
:10536000F248844208D101218014FEF7BFFA0021DF
:10537000A014FEF7BBFA16E0ED48844208D10121E3
:105380000014FEF78AFA00212014FEF786FA0AE0DC
:10539000E848844207D10121C013FEF77EFA0021BC
:1053A000E013FEF77AFA10BD70B505460C460026EC
:1053B000DE48854205D0DE48854202D0DD48854280
:1053C00000D104E04FF48371DBA0FBF701F82088E3
:1053D00058B12088B0F5806F07D02088B0F5004F15
:1053E00003D02088B0F5404F00D104E040F209110D
:1053F000D1A0FAF7EDFF6088B0F5827F01D0608818
:1054000000B904E04FF48571CBA0FAF7E1FFA08862
:10541000B0F5006F01D0A08800B904E040F20B1194
:10542000C5A0FAF7D5FFE08810B1E088022800D1C6
:1054300004E04FF48671C0A0FAF7CAFF208910B1CA
:105440002089012800D104E040F20D11BAA0FAF73A
:10545000BFFF6089B0F5007F01D0608900B904E02A
:105460004FF48771B4A0FAF7B3FFA089A0B1A08967
:10547000082811D0A08910280ED0A08918280BD098
:10548000A089202808D0A089282805D0A089302804
:1054900002D0A089382800D104E040F20F11A6A064
:1054A000FAF796FFE08910B1E089802800D104E086
:1054B0004FF48871A0A0FAF78BFF208A012800DB47
:1054C00004E040F211119CA0FAF782FF2E8806F446
:1054D0004156208861880843A1880843E188084331
:1054E0002189084361890843A1890843E189084368
:1054F00006432E80A88B4FF2FF710840A883208AB4
:10550000288270BD2DE9FE4F05460C464FF000097C
:1055100002274FF000084FF0010B0026B246002092
:105520000290019000908248854202D081488542D5
:1055300000D104E04FF4A5717FA0FAF749FF20885D
:1055400058B12088B0F5807F07D02088B0F5007F63
:1055500003D02088B0F5407F00D104E040F24B1129
:1055600075A0FAF735FF608858B16088102808D018
:105570006088202805D06088302802D06088B02854
:1055800000D104E04FF4A6716BA0FAF721FFA088C8
:1055900040B1A088012805D0A088032802D0A088A7
:1055A000052800D104E040F24D1163A0FAF710FF86
:1055B000E088B0F5007F01D0E08800B904E04FF446
:1055C000A7715DA0FAF704FFA068B0F5FA5F03D3F6
:1055D0006849A068884202D9A068022800D104E086
:1055E00040F24F1154A0FAF7F3FEA08910B1A08940
:1055F000082800D104E04FF4A8714FA0FAF7E8FEA4
:10560000A88B4FF240010840A88302202884B5F8F7
:105610001C90A068022803D14FF00008022754E034
:10562000A08810B94FF0010B01E04FF0020B524877
:10563000006800F4000028B14F48006820F4000022
:105640004D4908604C487C300068C0F388100190D8
:1056500049487C300068C0F3027000904648001F43
:10566000006800F03F00029044490298B1FBF0F05E
:10567000019948430099B0FBF1FAE088B0F5007F4A
:105680000AD14FEA1A2000EB80004000A168B0FB6D
:10569000F1F0401D86B20BE04FEA4B10BAFBF0F080
:1056A00000EB80004000A168B0FBF1F0401D86B225
:1056B0000A20B6FBF0F606F00108A6EB0800C0F3DE
:1056C0004F074FF6FF7000EA0828022F01DBFF2F7B
:1056D00002DD02274FF00008E08840EA0800384366
:1056E0002884A088A1890843618808432188084349
:1056F00040F4006040EA0909A5F81C90BDE8FE8F5F
:105700000021018041808180C180018141818181AE
:10571000C181072101827047002101804180818081
:10572000C1800221816000218181704700300140E9
:1057300000380040003C00402E2E5C4C69627261D3
:10574000726965735C53544D3332463478785F53D5
:1057500074645065726970685F4472697665725CE2
:105760007372635C73746D3332663478785F737010
:10577000692E630000EE02000838024000127A0031
:1057800070B504460D46FB48844205D0FA48844271
:1057900002D0FA48844200D105E040F20121AFF284
:1057A0006800FAF715FE0DB1012D00D105E040F2B9
:1057B0000221AFF27C00FAF70BFE25B1208840F001
:1057C0004000208004E020884FF6BF710840208010
:1057D00070BD70B504460D46E748844208D0E748DE
:1057E000844205D0E648844202D0B4F1402F00D173
:1057F00005E040F21A21AFF2C000FAF7E9FD0DB161
:10580000012D00D105E040F21B21AFF2D400FAF7E0
:10581000DFFD25B1A08B40F48060A08304E0A08B65
:105820004FF6FF310840A08370BD70B504460D46A9
:10583000D048844205D0D048844202D0CF48844228
:1058400000D105E040F23521AFF21410FAF7C0FDA7
:10585000B5F5006F00D005B905E040F23621AFF292
:105860002810FAF7B5FD20884FF2FF71084020801C
:1058700020882843208070BD70B504460D46BD4881
:10588000844205D0BC48844202D0BC48844200D146
:1058900005E040F24921AFF26010FAF799FD4BF6AE
:1058A000FF70854202D0B5F5804F00D105E040F28F
:1058B0004A21AFF27C10FAF78BFDB5F5804F04D189
:1058C000208840F48040208004E020884BF6FF715F
:1058D0000840208070BD70B504460D46A54884423E
:1058E00005D0A548844202D0A448844200D105E0F6
:1058F00040F26321AFF2C010FAF76AFDB5F5807F80
:1059000003D04FF6FF60854200D105E04FF41971D6
:10591000AFF2DC10FAF75CFD4FF6FF60854204D071
:10592000208840F48070208004E020884FF6FF61DA
:105930000840208070BD70B504460D468D488442F5
:1059400005D08D48844202D08C48844200D105E0C5
:1059500040F27B21AFF22020FAF73AFD0DB1012D84
:1059600000D105E04FF41F71AFF23420FAF730FD9B
:1059700025B1A08840F00400A08004E0A0884FF684
:10598000FB710840A08070BD70B504460D46794893
:10599000844205D07848844202D07848844200D1BD
:1059A00005E040F29A21AFF27020FAF711FD0DB137
:1059B000012D00D105E040F29B21AFF28420FAF7DF
:1059C00007FD25B1A08840F01000A08004E0A08869
:1059D0004FF6EF710840A08070BD2DE9F0410546FB
:1059E0000C46002600276648854202D0B5F1402FBC
:1059F00000D105E040F2C121AFF2C420FAF7E8FC83
:105A0000208858B12088B0F5807F07D02088B0F575
:105A1000007F03D02088B0F5407F00D105E040F240
:105A2000C221AFF2EC20FAF7D3FC608858B160884D
:105A3000102808D06088202805D06088302802D03F
:105A40006088B02800D105E040F2C321AFF21830E1
:105A5000FAF7BEFCA08840B1A088012805D0A08834
:105A6000032802D0A088052800D105E04FF4317149
:105A7000AFF23C30FAF7ACFCA08910B1A08908283D
:105A800000D105E040F2C521AFF25430FAF7A0FC96
:105A9000A88B4FF240010840A88302202884AE8BD7
:105AA0002088B0F5007F01D0208810B94FF48077AE
:105AB00008E02088B0F5407F03D02088B0F5807FD3
:105AC00000D10027A088A189084361880843384392
:105AD00040F400600643AE83BDE8F08110B5044693
