:020000040800F2
:2000000028140020093700083D3500083F35000843350008473500084B35000800000000BA
:20002000000000000000000000000000513500084F35000800000000533500085535000884
:20004000233700082337000823370008233700082337000823370008233700082337000890
:20006000233700082337000823370008233700082337000823370008233700082337000870
:20008000233700082337000823370008233700082337000823370008233700082337000850
:2000A000233700082337000823370008233700082337000823370008233700082337000830
:2000C0002337000823370008233700082337000823370008573500082337000823370008DE
:2000E0002337000823370008233700082337000823370008233700082337000823370008F0
:200100002337000823370008233700082337000823370008233700082337000823370008CF
:200120002337000823370008233700082337000823370008233700082337000823370008AF
:2001400023370008233700082337000823370008233700082337000823370008233700088F
:2001600023370008233700082337000823370008233700082337000823370008233700086F
:200180002337000823370008DFF80CD003F0D4FB00480047CB3300082814002010B5044626
:2001A000B4F5E06F0BD0B4F5C06F08D0B4F5A06F05D0B4F5806F02D0B4F5407F00D103E0A9
:2001C00073215FA002F0C8FF6A4820436A49086010BD2DE9F0410446002500270F26E0786C
:2001E00010B1E078012800D103E0872154A002F0B3FF6078102800DA03E0882150A002F071
:20020000ABFFA078102800DA03E089214CA002F0A3FFE07820B35848006800F4E060C0F5E1
:20022000E060C0F30725C5F10400C7B22E416078B840C5B2A078304005432807050E4F480D
:2002400021784554207800F01F0101208840217849114FF0E02202EB8101C1F8000109E095
:20026000207800F01F010120884045492278521141F82200BDE8F08170B504460D46B4F18A
:20028000005F02D0B4F1006F00D103E0B1212CA002F062FF3B48854200D203E0B22128A0DA
:2002A00002F05AFF384905EA010020433249091F086070BD70B504460D46102C03D0042CE6
:2002C00001D0022C00D103E0C4211DA002F044FF0DB1012D00D103E0C52119A002F03CFF28
:2002E0003DB12548001D006820432349091D086006E02148001D0068A0431F49091D086014
:2003000070BD10B50446042C01D0601D00D103E0DC210BA002F020FF042C08D14FF0E0206E
:20032000006940F004004FF0E021086107E04FF0E020006920F004004FF0E021086110BD5E
:200340002E2E5C4C69627261726965735C53544D3332463478785F53746450657269706837
:200360005F4472697665725C7372635C6D6973632E6300000000FA050CED00E000E400E0D9
:2003800080E100E0FFFF0F0080FFFF1F10B504466CB1012C0BD0022C09D0032C07D0042C01
:2003A00005D0052C03D0062C01D0072C00D103E0A921EFA002F0D0FEFD490C7010BD10B50D
:2003C00004460CB1012C00D103E0B821E8A002F0C3FE34B1F648006840F48070F4490860CD
:2003E00005E0F348006820F48070F149086010BD10B504460CB1012C00D103E0CE21DCA0EA
:2004000002F0AAFE34B1EA48006840F40070E849086005E0E648006820F40070E4490860F2
:2004200010BD10B504460CB1012C00D103E0E321CFA002F091FE34B1DD48006840F48060C8
:20044000DB49086005E0DA48006820F48060D849086010BDD648006840F40060D4490860B8
:200460007047D348006840F48050D14908607047CF481030006810F0004F05D0CD48CC49F8
:20048000091D0860CC4808607047C9481030006840F00040C6491031086070470820C449CE
:2004A0000C31096801F48031B1F5803F01D1012018E0BF490C31096811F0100F01D00520CC
:2004C00010E0BB490C31096811F0EF0F01D0062008E0B7490C31096811F0020F01D00720E4
:2004E00000E00820704708B508200090FFF7D6FF009002E0FFF7D2FF00909DF80000012876
:20050000F8D09DF8000008BD2DE9F04104460D4600270826ACB1082C13D0102C11D0182CAB
:200520000FD0202C0DD0282C0BD0302C09D0382C07D0402C05D0482C03D0502C01D0582CBB
:2005400000D104E040F25F1189A002F005FE2DB1012D03D0022D01D0032D00D104E04FF41F
:20056000B07183A002F0F8FD0DB9002709E0012D01D12F0205E0022D01D12F0201E04FF40E
:200580004077FFF7B0FF0646082E2DD188481030006820F440708649103108600846006815
:2005A000384308600846006820F0F80008600846006844F0020108437D491031086008463D
:2005C000006840F480300860FFF78DFF064678481030006820F0020075491031086008466A
:2005E000006820F0F80008603046BDE8F08170B5044600260825FFF776FF05462CB1012C15
:2006000003D0022C01D0032C00D104E04FF4D17157A002F0A1FD0CB9002609E0012C01D145
:20062000260205E0022C01D1260201E04FF44076082D20D15E481030006820F440705C49CE
:200640001031086008460068304308600846006840F0040008600846006840F4803008600C
:20066000FFF741FF054652481030006820F004004F4910310860284670BD2DE9F041044636
:2006800015461E464FF00807B4F1006F02D34B48844205D34A48844203D34A48844200D2DB
:2006A00004E040F2D51132A002F056FDFFF71BFF0746082F1ED13E481030006820F44070B2
:2006C0003B49103108600846006840F4407008600846006840F00100086025606660FFF75B
:2006E00002FF074632481030006820F001003049103108603846BDE8F08170B504460D4601
:200700000826B4F1006F02D32C48844205D32C48844203D32B48844200D204E040F2FB1173
:2007200013A002F019FDFFF7DEFE0646082E1DD11F481030006820F440701D4910310860DA
:200740000846006840F4007008600846006840F0010008602560FFF7C6FE06461448103061
:20076000006820F00100124910310860304670BD2E2E5C4C69627261726965735C53544DB4
:200780003332463478785F5374645065726970685F4472697665725C7372635C73746D3346
:2007A00032663478785F666C6173682E63000000003C024023016745AB89EFCDFFFF0F082C
:2007C0000078FF1F0F7AFF1F70B504460D460826B4F1006F02D3CE48844205D3CD48844274
:2007E00003D3CD48844200D205E040F22121AFF2800002F0B1FCFFF776FE0646082E19D187
:20080000C648006820F44070C44908600846006840F4807008600846006840F00100086098
:200820002580FFF760FE0646BC48006820F00100BA490860304670BD70B504460D460826F8
:20084000B4F1006F02D3B248844205D3B148844203D3B148844200D205E040F24721AFF2D1
:20086000F00002F079FCFFF73EFE0646082E17D1AA48006820F44070A84908600846006858
:2008800008600846006840F0010008602570FFF72AFE0646A148006820F001009F490860F0
:2008A000304670BD9D48001D006810F0010F05D09B489A49083908609A48086070479748F7
:2008C000001D006840F001009449091D0860704770B504460D460826200B000301D104B19B
:2008E00005E040F2BB21AFF2781002F035FC0DB1012D00D105E04FF42F71AFF28C1002F005
:200900002BFCFFF7F0FD0646082E10D13DB18348801D0088A0438149891D088007E07F4803
:20092000801D0088A1B208437C49891D088070BD70B504460825AA2C01D0552C00D105E05A
:2009400040F2DE21AFF2D81002F006FCFFF7CBFD0546082D02D17148401D047070BD2DE90B
:20096000F04104460D461646FF274FF00808202C00D004B905E040F2FF21AFF20C2002F009
:20098000EBFB402D00D005B905E04FF44071AFF2202002F0E1FB802E00D006B905E040F29A
:2009A0000131AFF2342002F0D7FBFFF79CFD8046B8F1080F0BD15948001D007800F00F071F
:2009C00045EA0700304320435449091D0870BDE8F08110B50446082C04D0042C02D00CB1E4
:2009E0000C2C00D105E040F21D31AFF27C2002F0B3FB4A48001D007820F00C004749091DB3
:200A00000870084600782043087010BD00B508224248001D007840F002004049091D087099
:200A2000FFF761FD0246104600BD3C48001D0068C0F3471070473948801D008870470020C0
:200A40003649491D0978AA2901D0012000E0002070473248001D007800F00C00704770B5CD
:200A600004460D4634F0407001D104B105E040F28F31AFF2043002F06FFB0DB1012D00D1B9
:200A800005E04FF46471AFF2183002F065FB2DB12248006820432149086004E01F48006886
:200AA000A0431E49086070BD70B504460025012C0CD0022C0AD0102C08D0202C06D0402C10
:200AC00004D0802C02D0B4F5803F00D105E040F2AF31AFF2643002F03FFB1048001F006854
:200AE000204201D0012500E00025284670BD10B5044634F0F30001D104B105E04FF4737144
:200B0000AFF2943002F028FB0448001F046010BDFFFF0F080078FF1F0F7AFF1F103C0240DF
:200B20003B2A19087F6E5D4C10B50446FA48844217D0FA48844214D0F948844211D0F94886
:200B400084420ED0F84884420BD0F848844208D0F748844205D0F748844202D0F64884427D
:200B600000D103E07B21F5A002F0F6FAEA48844208D10121084601F08DF90021012001F0C3
:200B800089F95EE0E548844208D10121022001F081F90021022001F07DF952E0E048844250
:200BA00008D10121042001F075F90021042001F071F946E0DB48844208D10121082001F0F4
:200BC00069F90021082001F065F93AE0D648844208D10121102001F05DF90021102001F069
:200BE00059F92EE0D148844208D10121202001F051F90021202001F04DF922E0CC488442CC
:200C000008D10121402001F045F90021402001F041F916E0C748844208D10121802001F047
:200C200039F90021802001F035F90AE0C248844207D10121801501F02DF90021A01501F07B
:200C400029F910BD2DE9F04104460D4600260027B046B148844217D0B048844214D0B0483E
:200C6000844211D0AF4884420ED0AF4884420BD0AE48844208D0AE48844205D0AD488442BA
:200C800002D0AD48844200D103E0BB21ABA002F063FA002010B9286800B103E0BC21A7A06C
:200CA00002F05AFA287940B12879012805D02879022802D02879032800D103E0BD219FA083
:200CC00002F04AFAE87928B1E879012802D0E879022800D103E0BE2198A002F03DFA0026A3
:200CE00057E0012000FA06F7286800EA0708B8454ED1206872000321914088432060287925
:200D0000710088402168084320602879012802D02879022830D1687940B16879012805D02D
:200D20006879022802D06879032800D103E0D02182A002F011FAA0687200032191408843CC
:200D4000A060687971008840A1680843A060A87910B1A879012800D103E0D72177A002F044
:200D6000FBF961680120B040814361606068A979B14089B208436060E06872000321914050
:200D80008843E060E87971008840E1680843E060761C102EA5D3BDE8F0814FF6FF71016066
:200DA0000021017141718171C171704738B504460D464FF4803000905748844217D057481B
:200DC000844214D05648844211D0564884420ED0554884420BD05548844208D05448844207
:200DE00005D05448844202D05348844200D104E04FF4827151A002F0AFF9002008B905B17C
:200E000004E040F205114DA002F0A6F90098284300900098E061E5610098E061E0690090C4
:200E2000E069009038BD70B505460C4600263A48854217D03948854214D03948854211D077
:200E4000384885420ED0384885420BD03748854208D03748854205D03648854202D036487D
:200E6000854200D104E04FF4987134A002F074F9012C25D0022C23D0042C21D0082C1FD0F0
:200E8000102C1DD0202C1BD0402C19D0802C17D0B4F5807F14D0B4F5007F11D0B4F5806FDD
:200EA0000ED0B4F5006F0BD0B4F5805F08D0B4F5005F05D0B4F5804F02D0B4F5004F00D111
:200EC00004E040F231111DA002F046F92869204201D0012600E00026304670BD10B5044629
:200EE0000D48844217D00D48844214D00C48844211D00C4884420ED00B4884420BD00B48B7
:200F0000844208D00A48844205D00A48844202D00948844232D137E00000024000040240A3
:200F200000080240000C0240001002400014024000180240001C0240002002402E2E5C4C53
:200F400069627261726965735C53544D3332463478785F5374645065726970685F447269B1
:200F60007665725C7372635C73746D3332663478785F6770696F2E63000000004FF4A371EB
:200F8000AFF2480002F0E8F8206980B210BD70B505460C460026FE48854217D0FD48854226
:200FA00014D0FD48854211D0FC4885420ED0FC4885420BD0FB48854208D0FB48854205D0D0
:200FC000FA48854202D0FA48854200D105E040F25711AFF2980002F0BFF8012C25D0022CAB
:200FE00023D0042C21D0082C1FD0102C1DD0202C1BD0402C19D0802C17D0B4F5807F14D0E6
:20100000B4F5007F11D0B4F5806F0ED0B4F5006F0BD0B4F5805F08D0B4F5005F05D0B4F578
:20102000804F02D0B4F5004F00D105E04FF4AC71AFF2F80002F090F86869204201D00126C3
:2010400000E00026304670BD10B50446D048844217D0D048844214D0CF48844211D0CF487C
:2010600084420ED0CE4884420BD0CE48844208D0CD48844205D0CD48844202D0CC4884422A
:2010800000D105E040F26D11AFF2501002F064F8606980B210BD70B504460D46BC48844247
:2010A00017D0BC48844214D0BB48844211D0BB4884420ED0BA4884420BD0BA48844208D007
:2010C000B948844205D0B948844202D0B848844200D105E040F27F11AFF2A01002F03CF826
:2010E000002008B905B105E04FF4C071AFF2B41002F032F8258370BD70B504460D46A448FC
:20110000844217D0A348844214D0A348844211D0A24884420ED0A24884420BD0A148844233
:2011200008D0A148844205D0A048844202D0A048844200D105E04FF4C971AFF2002002F03F
:201140000BF8002008B905B105E040F29311AFF2142002F001F8658370BD70B505460C46A3
:2011600016468B48854217D08A48854214D08A48854211D0894885420ED0894885420BD0B2
:201180008848854208D08848854205D08748854202D08748854200D105E04FF4D371AFF298
:2011A000642001F0D9FF012C25D0022C23D0042C21D0082C1FD0102C1DD0202C1BD0402C8F
:2011C00019D0802C17D0B4F5807F14D0B4F5007F11D0B4F5806F0ED0B4F5006F0BD0B4F5EC
:2011E000805F08D0B4F5005F05D0B4F5804F02D0B4F5004F00D105E040F2A711AFF2C420F4
:2012000001F0AAFF0EB1012E00D105E04FF4D471AFF2D82001F0A0FF0EB12C8300E06C83A2
:2012200070BD70B504460D465948844217D05948844214D05848844211D0584884420ED09B
:20124000574884420BD05748844208D05648844205D05648844202D05548844200D105E089
:2012600040F2BD11AFF22C3001F076FF656170BD70B504460D464648844217D045488442C8
:2012800014D04548844211D0444884420ED0444884420BD04348844208D04348844205D08A
:2012A0004248844202D04248844200D105E040F2CB11AFF2783001F04FFF6069684060613E
:2012C00070BD2DE9F04106460D4614460027B8462F48864217D02F48864214D02E488642F5
:2012E00011D02E4886420ED02D4886420BD02D48864208D02C48864205D02C48864202D0A5
:201300002B48864200D105E040F21721AFF2D43001F022FFEDB1012D1BD0022D19D0032DBC
:2013200017D0042D15D0052D13D0062D11D0072D0FD0082D0DD0092D0BD00A2D09D00B2D09
:2013400007D00C2D05D00D2D03D00E2D01D00F2D00D105E04FF40671AFF2204001F0FCFEF7
:2013600044B3092C45D02CB324B31CB314B3012C3FD03ED0022C3CD03BD03AD0032C38D010
:20138000042C36D035D034D0052C32D031D012E0000002400004024000080240000C0240C8
:2013A000001002400014024000180240001C0240002002401DE0092C1BD0062C19D0092CFE
:2013C00017D0072C15D014D013D0082C11D010D00FD0092C0DD00CD00A2C0AD009D00B2C65
:2013E00007D00C2C05D004D003D00D2C01D00F2C00D105E040F21921AFF2C04001F0ACFEBF
:201400006807C00E04FA00F7E91006F1200050F821006907CA0E0F2191408843EA1006F11C
:20142000200141F82200E91006F1200050F8210040EA0708E91006F1200040F82180BDE8F0
:20144000F081000010B50446A4F5AA40553800D004B903E0842124A001F07EFE32480460D8
:2014600010BD10B504465CB1012C09D0022C07D0032C05D0042C03D0052C01D0062C00D16C
:2014800003E0982118A001F067FE2748446010BD10B50446B4F5805F00DA03E0A52112A0F6
:2014A00001F05AFE2048846010BD4AF6AA201E49086070474CF6CC401B490860704770B544
:2014C00004460025012C01D0022C00D103E0EA2105A001F041FE1448C068204201D0012500
:2014E00000E00025284670BD2E2E5C4C69627261726965735C53544D3332463478785F5326
:2015000074645065726970685F4472697665725C7372635C73746D3332663478785F69773E
:2015200064672E630000000000300040F948006840F00100F74908600020F649083108605D
:20154000F4480068F4490840F2490860F348091D0860081F006820F48020091F0860002003
:20156000EC490C310860704710B504461CB1012C01D0052C00D103E0F021E9A001F0ECFDA7
:201580000020E449891C08700846047010BD2DE9F0410446002500260027212C17D0312CBE
:2015A00015D0392C13D0412C11D0612C0FD0792C0DD07A2C0BD07B2C09D07C2C07D07D2C99
:2015C00005D07E2C03D07F2C01D03B2C00D104E040F29C61D2A001F0BFFD6511012D02D15C
:2015E000CC48066808E0022D03D1CA487030066802E0C8487430066804F01F050120A84039
:20160000304201D0012700E000273846BDE8F08138B5002000900024002500BF3120FFF7D8
:20162000B6FF05460098401C00900098B0F5A06F01D0002DF2D03120FFF7A9FF08B101244D
:2016400000E00024204638BD70B5044600251F2C00DC04E04FF49471B1A001F07DFDAD4893
:20166000056825F0F80545EAC405056070BD10B504460CB1012C00D104E040F24B11A8A0DD
:2016800001F06AFDB548046010BD10B504461CB1012C01D0042C00D104E04FF4B271A0A05F
:2016A00001F05AFD00209B49703108700870012C02D0042C0AD104E0012096497031087046
:2016C00005E0052093497031087000E000BF00BF10BD10B504460CB1012C00D104E04FF4EF
:2016E000C6718FA001F038FD9D48046010BD2DE9F04105460F4616461C46DDF8188015B170
:20170000B5F5800F00D104E040F2B71184A001F023FD3F2F00D804E04FF4DC7180A001F0E1
:201720001BFDC02E03D3B6F5D87F00D804E040F2B9117BA001F010FD022C05D0042C03D0F4
:20174000062C01D0082C00D104E04FF4DD7174A001F002FDB8F1040F03D3B8F10F0F00D8D7
:2017600004E040F2BB116EA001F0F6FC47EA86100121C1EB540140EA0140284340EA086044
:201780006449091D0860BDE8F08110B504460CB1012C00D104E04FF4E77161A001F0DCFCE5
:2017A0006E48046610BD70B505460C46C02D03D3B5F5D87F00D804E04FF4F47158A001F069
:2017C000CBFC022C02D3072C00D804E040F2E91153A001F0C1FCA80140EA04704D498431F1
:2017E000086070BD10B504460CB1012C00D104E040F2F7114AA001F0AFFC5848846610BD8F
:2018000010B504460CB1012C00D104E040F2092143A001F0A1FC5148C46410BD70B505464F
:201820000C46002645B1B5F5001F05D0B5F5800F02D0B5F5C00F00D104E04FF4097138A0CE
:2018400001F08AFC5CB1B4F1806F08D0B4F1A06F05D0B4F1C06F02D0B4F1E06F00D104E0C0
:2018600040F225212EA001F077FC2A480830066826F0EC6645EA04000643264808300660B6
:2018800070BD70B505460C46002645B1B5F1804F05D0B5F1004F02D0B5F1404F00D104E042
:2018A00040F24A211EA001F057FC5CB1B4F1005F08D0B4F1205F05D0B4F1405F02D0B4F1EC
:2018C000605F00D104E040F24B2115A001F044FC10480830066826F0784645EA04000643C2
:2018E0000C480830066070BD70B5044600251CB1012C01D0022C00D104E04FF42D7108A0FE
:2019000001F02AFC03480830056825F003052543056070BD00380240FFFFF6FE10300024D9
:201920002E2E5C4C69627261726965735C53544D3332463478785F53746450657269706841
:201940005F4472697665725C7372635C73746D3332663478785F7263632E630000004742C8
:20196000800E4742F948006800F00C00704770B5044600257CB1802C0DD0902C0BD0A02C47
:2019800009D0B02C07D0C02C05D0D02C03D0E02C01D0F02C00D105E040F2E921AFF280001F
:2019A00001F0DAFBE948056825F0F0052543056070BD70B5044600255CB1B4F5805F08D0BE
:2019C000B4F5A05F05D0B4F5C05F02D0B4F5E05F00D105E040F20931AFF2BC0001F0BCFBE1
:2019E000DA48056825F4E0552543056070BD70B5044600255CB1B4F5805F08D0B4F5A05F67
:201A000005D0B4F5C05F02D0B4F5E05F00D105E04FF44A71AFF2F80001F09EFBCB48056818
:201A200025F4604545EAC405056070BDF0B5002100220024022500260223C44F3F6807F02F
:201A40000C0121B1042905D0082937D105E0C04F076036E0BF4F076033E0BC4F3F1F3F6863
:201A6000C7F38056B94F3F1F3F6807F03F036EB1B84FB7FBF3F7DFF8D4C2ACF1040CDCF8E0
:201A800000C0CCF3881C07FB0CF40CE0B04FB7FBF3F7DFF8B8C2ACF1040CDCF800C0CCF349
:201AA000881C07FB0CF4A94F3F1F3F68C7F301477F1C7D00B4FBF5F7076002E0A44F07602B
:201AC00000BF00BFA14F3F6807F0F0010909A24F7A5C0768D74047609C4F3F6807F4E05145
:201AE000890A9D4F7A5C4768D7408760974F3F6807F46041490B984F7A5C4768D740C760BD
:201B0000F0BD70B504460025B4F5807F5CD0B4F5007F59D09148844256D09148844253D0D8
:201B20009048844250D0904884424DD08F4884424AD08F48844247D08E48844244D08E483B
:201B4000844241D08D4884423ED08D4884423BD08C48844238D08C48844235D08B48844285
:201B600032D08B4884422FD08A4884422CD08A48844229D08948844226D08948844223D08F
:201B80008848844220D0884884421DD0874884421AD08748844217D08648844214D08648FB
:201BA000844211D0854884420ED0854884420BD08448844208D08448844205D0834884423D
:201BC00002D08348844200D105E040F2D931AFF2B02001F0C1FA04F44070B0F5407F09D1AD
:201BE0005A48056825F4F8157A4904EA0100054356480560554868300068C4F30B01084308
:201C000052496831086070BD10B504460CB1012C00D105E040F2F731AFF2FC2001F09CFAAE
:201C20006D48046010BD10B504460CB1012C00D105E04FF48161AFF2183001F08DFA6648DB
:201C4000001D046010BD10B504460CB1012C00D105E040F21941AFF2383001F07DFA5F48E3
:201C6000046010BD70B504460D465D48044201D104B105E04FF48861AFF25C3001F06CFA6A
:201C80000DB1012D00D105E040F24241AFF2703001F062FA3DB12D482830006820432B4965
:201CA0002831086006E0294828300068A04327492831086070BD70B504460D4634F0F10034
:201CC00001D104B105E04FF48C61AFF2AC3001F043FA0DB1012D00D105E040F26141AFF2A6
:201CE000C03001F039FA3DB118482C300068204316492C31086006E014482C300068A0434E
:201D000012492C31086070BD70B504460D4634F0010001D104B105E040F27B41AFF2004054
:201D200001F01AFA0DB1012D00D105E040F27C41AFF2144001F010FA3DB10448303000681B
:201D4000204302493031086051E04BE0083802400024F40000127A00000000200003020065
:201D60000003030000030400000305000003060000030700000308000003090000030A0017
:201D800000030B0000030C0000030D0000030E0000030F00000310000003110000031200B7
:201DA0000003130000031400000315000003160000031700000318000003190000031A0057
:201DC00000031B0000031C0000031D0000031E0000031F00FFFCFF0F3C0E47425C014742A1
:201DE00000EE8B81F8480068A043F749086070BD70B504460D46F548044201D104B105E0D8
:201E000040F2AD41AFF2E84001F0A6F90DB1012D00D105E040F2AE41AFF2FC4001F09CF923
:201E20003DB1E948083000682043E7490831086006E0E54808300068A043E349083108604C
:201E400070BD70B504460D46E148044201D104B105E040F2D541AFF2385001F07DF90DB122
:201E6000012D00D105E040F2D641AFF24C5001F073F93DB1D4480C3000682043D2490C3132
:201E8000086006E0D0480C300068A043CE490C31086070BD70B504460D46CE48044201D17C
:201EA00004B105E040F2FC41AFF28C5001F054F90DB1012D00D105E040F2FD41AFF2A050BB
:201EC00001F04AF93DB1C048283800682043BE492839086006E0BC4828380068A043BA4945
:201EE0002839086070BD70B504460D4634F0F10001D104B105E040F21951AFF2DC5001F04F
:201F00002BF90DB1012D00D105E040F21A51AFF2F05001F021F93DB1AB482438006820436A
:201F2000A9492439086006E0A74824380068A043A5492439086070BD70B504460D4634F0A8
:201F4000010001D104B105E040F23151AFF2306001F002F90DB1012D00D105E040F23251EC
:201F6000AFF2446001F0F8F83DB1974820380068204395492039086006E09348203800682B
:201F8000A04391492039086070BD70B504460D468E48044201D104B105E04FF4AC61AFF25B
:201FA000806001F0D9F80DB1012D00D105E040F26151AFF2946001F0CFF83DB182481838A4
:201FC0000068204380491839086006E07E4818380068A0437C491839086070BD70B5044653
:201FE0000D467D48044201D104B105E040F28451AFF2D46001F0B0F80DB1012D00D105E000
:2020000040F28551AFF2E86001F0A6F83DB16E481438006820436C491439086006E06A4883
:2020200014380068A04368491439086070BD70B504460D466948044201D104B105E040F21F
:20204000B251AFF2247001F087F80DB1012D00D105E040F2B351AFF2387001F07DF83DB163
:20206000594818300068204357491831086006E0554818300068A04353491831086070BDCB
:2020800070B504460D4634F0F10001D104B105E040F2D251AFF2787001F05EF80DB1012DEC
:2020A00000D105E040F2D351AFF28C7001F054F83DB145481C300068204343491C31086067
:2020C00006E041481C300068A0433F491C31086070BD70B504460D4634F0010001D104B122
:2020E00005E040F2ED51AFF2C87001F035F80DB1012D00D105E040F2EE51AFF2DC7001F0A3
:202100002BF83DB130482030006820432E492031086006E02C4820300068A0432A49203132
:20212000086070BD70B504460D462848044201D104B105E040F21F61AFF61C0001F00CF8BE
:202140000DB1012D00D105E04FF4C461AFF6300001F002F83DB11C482830006820431A49DD
:202160002831086006E0184828300068A04316492831086070BD70B504460D461448044204
:2021800001D104B105E040F24761AFF66C0000F0E3FF0DB1012D00D105E04FF4C961AFF662
:2021A000800000F0D9FF3DB107482C300068204305492C31086006E003482C300068A04388
:2021C00001492C31086070BD38380240003601C9CCA0F8FF00EE9FDDCCA6F8FF006E988154
:2021E00070B504460D4614F0C00F01D104B105E040F27461AFF6D80000F0AEFF0DB1012DD1
:2022000000D105E040F27561AFF6EC0000F0A4FF2DB12448007820432249087004E0214887
:202220000078A0431F49087070BD1E486730006840F080701B4967310860704770B5044627
:202240000025012C0BD0022C09D0042C07D0082C05D0102C03D0802C01D0202C00D105E0AC
:2022600040F2DA61AFF6481000F076FF0D48401E0068204201D0012500E00025284670BD7B
:2022800010B5044614F0400F01D104B105E040F2F961AFF6741000F05FFF0248401C047053
:2022A00010BD00000D38024010B50446F84884420ED0F84884420BD0F748844208D0F748DA
:2022C000844205D0F648844202D0F648844200D103E0B521F4A000F03FFFED48844208D169
:2022E00001211020FFF77AFE00211020FFF776FE3EE0E848844209D101214804FFF745FECE
:2023000000214FF40030FFF740FE31E0E248844209D101218804FFF738FE00214FF480203C
:20232000FFF733FE24E0DD48844209D10121C804FFF72BFE00214FF40020FFF726FE17E00B
:20234000D748844209D101210805FFF71EFE00214FF48010FFF719FE0AE0D248844207D1DA
:2023600001212020FFF73AFE00212020FFF736FE10BD2DE9FF4705460C460026B14600BFA0
:20238000B046C34885420ED0C24885420BD0C248854208D0C148854205D0C148854202D0FB
:2023A000C048854200D103E0EB21BFA000F0D4FE206820B1CC492068884200D203E0EC21EB
:2023C000B9A000F0C9FEA08818B1A088B0F5805F00D103E0ED21B4A000F0BEFEE08858B11D
:2023E000E088B0F5805F07D0E088B0F5005F03D0E088B0F5405F00D103E0EE21AAA000F032
:20240000ABFE208938B12089B0F5806F03D02089B0F5C06F00D103E0EF21A3A000F09CFE63
:2024200060894FF6F371084202D1608900B103E0F0219DA000F090FEA08958B1A089B0F5A4
:20244000807F07D0A089B0F5007F03D0A089B0F5407F00D103E0F12193A000F07DFEA0896C
:2024600080B18B48854208D08A48854205D08A48854202D08B48854200D103E0F6218AA051
:2024800000F06AFE2E8A26F44056E08806432E82AE8941F20C608643A08821890843618975
:2024A00008430643AE81AE8A26F44076A0890643AE826846FFF7BAFA7548854202D0794840
:2024C000854202D1DDF80C9001E0DDF80890A88910F4004F08D009EBC90000EB09102168FD
:2024E0004900B0FBF1F707E009EBC90000EB091021688900B0FBF1F76420B7FBF0F0060196
:202500003009642101FB1078A88910F4004F08D0322000EBC800B0FBF1F000F0070006434C
:2025200008E0322000EB08106421B0FBF1F000F00F0006432E81BDE8FF874FF41651016020
:2025400000218180C18001810C21418100218181704770B505460C4600264D48854208D0B1
:202560004C48854205D04C48854202D04D48854200D104E04FF4B6714BA000F0EDFD208816
:2025800018B12088B0F5006F00D104E040F26D1145A000F0E1FD608818B16088B0F5806F71
:2025A00000D104E04FF4B7713FA000F0D5FDA08818B1A088B0F5007F00D104E040F26F11B6
:2025C00039A000F0C9FDE08818B1E088B0F5807F00D104E04FF4B87133A000F0BDFD2E8AD9
:2025E00026F47066208861880843A1880843E188084306432E8270BD00210180418081805D
:20260000C180704770B504460D46214884420ED0204884420BD02048844208D01F488442B7
:2026200005D01F48844202D01E48844200D104E040F29B111CA000F08FFD0DB1012D00D112
:2026400004E04FF4CE7118A000F086FD25B1A08940F40050A08104E0A0894DF6FF7108403D
:20266000A08170BD70B504460D46094884420ED0084884420BD00848844208D00748844261
:2026800005D00748844202D0064884422ED133E0001001400044004000480040004C00406F
:2026A00000500040001401402E2E5C4C69627261726965735C53544D3332463478785F530F
:2026C00074645065726970685F4472697665725C7372635C73746D3332663478785F757365
:2026E0006172742E63000000E170720040F2B511AFF24C0000F030FD208B00F47F4020833C
:20270000208B2843208370BD70B504460D46FE4884420ED0FD4884420BD0FD48844208D05E
:20272000FC48844205D0FC48844202D0FB48844200D105E04FF4E571AFF2940000F00CFD58
:202740000DB1012D00D105E040F2CB11AFF2A80000F002FD25B1A08940F40040A08103E01A
:20276000A089C0F30E00A08170BD70B504460D46E54884420ED0E54884420BD0E4488442CE
:2027800008D0E448844205D0E348844202D0E348844200D105E04FF4F271AFF2F40000F005
:2027A000DBFC0DB1012D00D105E040F2E511AFF2081000F0D1FC25B1A08A40F40060A0824C
:2027C00004E0A08A4FF2FF710840A08270BD70B504460D46CC4884420ED0CC4884420BD074
:2027E000CB48844208D0CB48844205D0CA48844202D0CA48844200D105E040F21D21AFF231
:20280000581000F0A9FCB5F5007F00DA05E040F21E21AFF26C1000F09FFCC5F30800A080DA
:2028200070BD10B50446B84884420ED0B74884420BD0B748844208D0B648844205D0B648E4
:20284000844202D0B548844200D105E040F22D21AFF2AC1000F080FCA088C0F3080010BD6E
:2028600070B504460D46A84884420ED0A74884420BD0A748844208D0A648844205D0A6486E
:20288000844202D0A548844200D105E04FF41871AFF2EC1000F060FC0F2D00DC05E040F253
:2028A0006121AFF2FC1000F057FC208A4FF6F07108402082208A2843208270BD70B5044619
:2028C0000D46914884420ED0904884420BD09048844208D08F48844205D08F48844202D058
:2028E0008E48844200D105E04FF41D71AFF2482000F032FC0DB1012D00D105E040F2752124
:20290000AFF25C2000F028FC25B1A08940F00200A08104E0A0894FF6FD710840A08170BDDE
:2029200070B504460D46784884420ED0774884420BD07748844208D07648844205D076489D
:20294000844202D07548844200D105E040F28F21AFF2AC2000F000FC15B1B5F5006F00D1BB
:2029600005E04FF42471AFF2C02000F0F5FBA0894FF2FF710840A081A0892843A08170BD14
:2029800070B504460D46604884420ED05F4884420BD05F48844208D05E48844205D05E48B5
:2029A000844202D05D48844200D105E04FF43571AFF20C3000F0D0FB0DB1202D00D105E01C
:2029C00040F2D521AFF2203000F0C6FB208A4FF6DF7108402082208A2843208270BD70B5FB
:2029E00004460D46484884420ED0484884420BD04748844208D04748844205D0464884422A
:202A000002D04648844200D105E040F2E621AFF2683000F0A1FB0DB1012D00D105E040F208
:202A2000E721AFF27C3000F097FB25B1208A40F48040208204E0208A4BF6FF710840208280
:202A400070BD10B50446304884420ED02F4884420BD02F48844208D02E48844205D02E486A
:202A6000844202D02D48844200D105E040F2FE21AFF2CC3000F070FBA08940F00100A08109
:202A800010BD70B504460D461F4884420ED01F4884420BD01E48844208D01E48844205D08F
:202AA0001D48844202D01D48844200D105E040F23331AFF20C4000F04FFB0DB1012D00D1BE
:202AC00005E04FF44D71AFF2204000F045FB25B1A08A40F00800A08204E0A08A4FF6F771CA
:202AE0000840A08270BD70B504460D460648844208D00648844205D00548844202D0074874
:202B000084420DD112E00000001001400044004000480040004C0040005000400014014051
:202B20004FF46271AFF2804000F016FB208BC0B22083208B40EA0520208370BD70B5044624
:202B40000D46F848844208D0F748844205D0F748844202D0F648844200D105E040F29B31DB
:202B6000AFF2BC4000F0F8FA0DB1012D00D105E04FF46771AFF2D04000F0EEFA25B1A08A90
:202B800040F02000A08204E0A08A4FF6DF710840A08270BD70B504460D46E248844208D0FF
:202BA000E148844205D0E148844202D0E048844200D105E04FF46D71AFF2145000F0CCFA10
:202BC0000DB1012D00D105E040F2B531AFF2285000F0C2FA25B1A08A40F01000A08204E030
:202BE000A08A4FF6EF710840A08270BD70B504460D46CC4884420ED0CB4884420BD0CB482E
:202C0000844208D0CB48844205D0CB48844202D0C748844200D105E040F2FB31AFF278506B
:202C200000F09AFA042D00D005B905E04FF47F71AFF28C5000F090FAA08A4FF6FB7108401F
:202C4000A082A08A2843A08270BD70B504460D46B44884420ED0B44884420BD0B3488442AE
:202C600008D0B448844205D0B348844202D0B048844200D105E040F20D41AFF2D45000F0A9
:202C80006BFA0DB1012D00D105E040F20E41AFF2E85000F061FA25B1A08A40F00200A08234
:202CA00004E0A08A4FF6FD710840A08270BD70B504460D4616469B4884420ED09A4884426F
:202CC0000BD09A48844208D09A48844205D09A48844202D09648844200D105E040F23B419A
:202CE000AFF23C6000F038FA4FF63F70054201D105B105E040F23C41AFF2546000F02CFAB3
:202D00000EB1012E00D105E040F23D41AFF2686000F022FA1EB1A08A2843A08202E0A08A58
:202D2000A843A08270BD2DE9F04704460D4617464FF00008C246C14600267A4884420ED030
:202D4000794884420BD07948844208D07948844205D07948844202D07548844200D105E0C4
:202D600040F2BD41AFF2C06000F0F6F9282D18D0A5F5E060273814D0A5F5C060263810D031
:202D8000A5F5A06025380CD0A5F58060243808D0A5F50060463804D0B0F5927001D0602D61
:202DA00000D105E040F2BE41AFF2047000F0D4F90FB1012F00D105E040F2BF41AFF2187059
:202DC00000F0CAF9A5F510606A3812D15548844208D05548844205D05448844202D054486E
:202DE000844200D105E040F2C441AFF2447000F0B3F92646C5F3421805F01F0A012000FA78
:202E00000AF9B8F1010F01D10C3605E0B8F1020F01D1103600E0143627B1306840EA09005E
:202E2000306003E0306820EA09003060BDE8F08770B505460C4600263A4885420ED03A4837
:202E400085420BD03948854208D03A48854205D03948854202D03648854200D105E040F24B
:202E6000FC41AFF2BC7000F077F9012C13D0802C11D0402C0FD0202C0DD0102C0BD0B4F517
:202E8000807F08D0B4F5007F05D0082C03D0042C01D0022C00D105E040F2FD41AFF2F870F9
:202EA00000F05AF9B4F5007F12D11E48854208D01D48854205D01D48854202D01C48854295
:202EC00000D105E040F20251AFF6240000F044F92888204201D0012600E00026304670BD0E
:202EE00070B504460D460F4884420ED00E4884420BD00E48844208D00E48844205D00E48E3
:202F0000844202D00A48844200D105E040F22C51AFF66C0000F020F94FF69F4005420DD139
:202F200065B111E000100140004400400048004000140140004C00400050004040F22D510C
:202F4000AFF69C0000F008F905F40070B0F5007F12D17B48844208D07A48844205D07A484F
:202F6000844202D07948844200D105E040F23251AFF6CC0000F0F0F8E843208070BD2DE970
:202F8000F04705460C4600270026B046B1466C4885420ED06B4885420BD06B48854208D023
:202FA0006B48854205D06B48854202D06748854200D105E04FF4AA61AFF6141000F0CCF87F
:202FC000282C26D0A4F5E060273822D0A4F5C06026381ED0A4F5A06025381AD0A4F580601F
:202FE000243816D0A4F50060463812D0B0F592700FD0B4F5587F0CD0A4F54070253808D0D6
:20300000B4F5587F05D0B4F5187F02D0B4F5B07F00D105E040F25151AFF6741000F09CF83A
:20302000A4F510606A3812D14548854208D04548854205D04448854202D04448854200D164
:2030400005E040F25651AFF6A01000F085F8C4F3421804F01F06012000FA06F6B8F1010FF6
:2030600002D1A889064007E0B8F1020F02D1288A064001E0A88A06402712012000FA07F7EF
:20308000288807401EB117B14FF0010901E04FF000094846BDE8F0872DE9F04104460D46A2
:2030A00000260027264884420ED0264884420BD02548844208D02648844205D0254884425B
:2030C00002D02248844200D105E040F29951AFF6282000F041F8A5F5C06026380AD0A5F57A
:2030E000A060253806D0A5F50060463802D0B0F5927000D105E040F29A51AFF6542000F0D0
:203100002BF8A5F510606A3812D10D48844208D00C48844205D00C48844202D00B48844216
:2031200000D105E040F29F51AFF6842000F014F82E120120B04087B2F8432080BDE8F081F7
:2031400000100140004400400048004000140140004C00400050004000BFFEE710B5002117
:203160004FF00060FDF788F810BD70B54FF00060446825460146086880F3088800BFA8472C
:2031800070BD70B5B0480068B0490840B0F1005F08D1AD48446825460146086880F308889D
:2031A00000BFA84770BD01460020A94A914203D2B1F1006F00D350E0A64A914204D2A44A97
:2031C000914201D3082048E0A34A914204D2A14A914201D3102040E0A04A914204D29E4A05
:2031E000914201D3182038E0974A914204D29B4A914201D3202030E0994A914204D2924A0A
:20320000914201D3282028E0964A914204D2944A914201D3302020E0934A914204D2914AF8
:20322000914201D3382018E0904A914204D28E4A914201D3402010E08D4A914204D28B4AF0
:20324000914201D3482008E08A4A914204D2884A914201D3502000E05820704710B57A487B
:20326000FFF7A1FF0446FDF703F9F320FDF73FFC00BF02212046FDF747F90828F9D1FDF7D2
:2032800004F910BD2DE9F04104460D4616462746FDF7EEF8F320FDF72AFC0EE015F8011B99
:2032A000694AA018FDF7C8FA082801D1641C04E0FDF7EBF80020BDE8F081F019A042EDD8CA
:2032C000FDF7E3F80120F6E72DE9F04104460D4616462046FFF767FF80462746FDF7C8F838
:2032E000F320FDF704FC00BF02214046FDF70CF90828F9D10DE015F8011B2046FDF79CFA66
:20330000082801D1641C04E0FDF7BFF80020BDE8F081F019A042EED8FDF7B7F80120F6E714
:2033200010B51346024603E0147801F8014B521CC4189442F8D810BD08B501226946464899
:20334000FFF7EEFF9DF80000552801D1012008BD0020FCE738B504468DF8004001226946EF
:203360003D48FFF7B1FF38BD70B500240025FFF775FF00BF13E0FEF798F8394901EB04307C
:203380004FF480523C49FFF7CBFF20034FF480523949FFF777FF054605B902E0641C202CF6
:2033A000E9D300BF284670BD10B545F25550FEF749F80520FEF755F84FF44870FEF768F869
:2033C000FEF778F8FEF771F810BDFFF7C7FE00F0CBF8FFF7E9FFFEF768F800F015F927A0F7
:2033E00000F0BCFAFFF7A8FF012814D1FEF75DF82AA000F0B3FAFFF7B7FF012808D10020FD
:20340000FFF7A8FF2CA000F0A9FAFEF74EF802E031A000F0A3FA38A000F0A0FAFFF7B1FE2E
:20342000FEF743F83CA000F099FA4FF47A6000F05DF94FF47A6000F059F9FEF736F8FFF722
:2034400094FE00BFFEE70000000002080000FE2F004000080080000800C00008000001085E
:2034600000000408000006080000080800000A0800000C0800000E08280000200D0A3E3E0B
:20348000426F6F746C6F616465722073746172742E2E2E2E2E2E0D0A000000000D0A3E3E15
:2034A000537461727420557067726164652E2E2E2E2E2E2E2E0D0A000D0A3E3E557067725E
:2034C00061646520537563636573732E2E2E2E2E2E2E2E0D0A0000000D0A3E3E5570677211
:2034E000616465204661696C65642E2E2E2E2E2E2E2E0D0A000000000D0A3E3E456E746597
:2035000072204170706C69636174696F6E2E2E2E2E2E2E2E2E0D0A000D0A3E3E4E6F20416D
:2035200070706C69636174696F6E20417265612E2E2E2E2E2E2E2E0D0A000000704700BFC2
:20354000FEE700BFFEE700BFFEE700BFFEE7704770477047704710B540F225510148FFF712
:203560000EFD10BD0010014000B589B001211020FEF767FC01210220FEF774FB0722062192
:203580004A48FDF79EFE072211464848FDF799FE07A8FDF702FCC020079002208DF820008F
:2035A00003208DF8210007A94048FDF74BFB03A8FEF7C3FF4FF4E13003900020ADF81000B2
:2035C000ADF81200ADF81400ADF818000C20ADF8160003A93648FEF7CCFE01A8FFF70CF84B
:2035E0004FF48060ADF8060001A93148FEF7B1FF012240F225512E48FFF795FB01212C48D8
:20360000FFF700F809B000BD08B54FF4C060FCF7C5FD25208DF8000000208DF801008DF87C
:20362000020001208DF803006846FCF7D2FD08BD70B504460D46E1B21D48FFF7C8F800BF7B
:2036400040211B48FFF7F4FB0028F9D0204670BD70B505460E4600240CE0295D1448FFF791
:20366000B6F800BF80211248FFF7E2FB0028F9D0601C84B2B442F0DB70BD70B505460024EA
:203680000FE0285D00B970BD295D0948FFF79FF800BF80210648FFF7CBFB0028F9D0601C95
:2036A000C4B2642CEDDB00BFEDE70000000402400010014000BF0100A0F10100FBD170473D
:2036C000002105E0002200E0521C082AFCD3491C8142F7D37047002105E0002200E0521C54
:2036E000C82AFCD3491C8142F7D37047002107E0002200E0521C40F6B8339A42FAD3491CB9
:203700008142F5D3704700000648804706480047FEE7FEE7FEE7FEE7FEE7FEE7FEE7FEE795
:20372000FEE7FEE707380008890100080CB50020019000907548006840F4803073490860B7
:2037400000BF7248006800F4003000900198401C0190009818B90198B0F5A06FF1D16B4823
:20376000006810F4003F02D00120009001E0002000900098012845D164484030006840F0FF
:2037800080506249403108606148006840F480405F4908605D48083000685C490831086035
:2037A0000846006840F4004008600846006840F4A05008605748091F0860081F006840F047
:2037C0008070091F086000BF5048006810F0007FFAD040F20560504908604C480830006895
:2037E00020F003004949083108600846006840F00200086000BF45480830006800F00C004B
:203800000828F8D10CBD10B54448006840F47000424908603D48006840F001003B4908608C
:2038200000203A4908310860384800683C490840364908603B48091D0860081F006820F4F4
:203840008020091F0860002030490C310860FFF76DFF4FF0006031498039086010BD70B56C
:2038600000200022022300240221284D08352D6805F00C0020B1042806D0082834D107E063
:20388000294D2A4E356033E0294D284E35602FE01E4D2D1D2D68C5F380541C4D2D1D2D68E4
:2038A00005F03F0154B1224DB5FBF1F5174E361D3668C6F3881605FB06F209E01A4DB5FB24
:2038C000F1F5124E361D3668C6F3881605FB06F20E4D2D1D2D68C5F301456D1C6B00B2FB89
:2038E000F3F5124E356003E00F4D104E356000BF00BF064D08352D68C5F303150D4E705D1E
:203900000A4D2D68C540094E356070BD003802400070004010544007003C024088ED00E0F5
:20392000FFFFF6FE103000240024F4001000002000127A0014000020064C074D06E0E06855
:2039400040F0010394E8070098471034AC42F6D3FCF71EFCAC390008CC390008014A024939
:2039600000F013B8313600082400002002E008C8121F08C1002AFAD170477047002001E0C9
:2039800001C1121F002AFBD170472DE9F04116460F460446002503E03946B0476D1C641CBE
:2039A00020780028F8D12846BDE8F081CC39000800000020280000006C390008F4390008C3
:2039C00028000020001400007C39000800000000010203040102030406070809007A030A15
:2039E0000000000000000000010203040607080900000000FFFFFFFFFFFFFFFFFFFFFFFFAB
:203A0000FFFFFFFFFFFFFFFFFFFFFFFFFFFFFFFFFFFFFFFFFFFFFFFFFFFFFFFFFFFFFFFFC6
:203A2000FFFFFFFFFFFFFFFFFFFFFFFFFFFFFFFFFFFFFFFFFFFFFFFFFFFFFFFFFFFFFFFFA6
:203A4000FFFFFFFFFFFFFFFFFFFFFFFFFFFFFFFFFFFFFFFFFFFFFFFFFFFFFFFFFFFFFFFF86
:203A6000FFFFFFFFFFFFFFFFFFFFFFFFFFFFFFFFFFFFFFFFFFFFFFFFFFFFFFFFFFFFFFFF66
:208000005501FFFFFF0130303030303031363038323930303031000001C0A80B98FFFFFFE8
:2080200000C0A80B01FFDCFF7909E682025041494B4F55000000000000000000000000003D
:20804000000000000000000000000000000000FF23616964656B6F756B6F750000000000CD
:20806000000000000000000000000000000000000000000000000000000000000000000000
:20808000000000000000000000000000000000000000FF1905FFFFFFFFFFFF0059027900F5
:2080A000320056372E39000000000000000000000000000000000000FFFFFFFFFFFFFFFFA2
:2080C000FFFFFFFFFFFFFFFFFFFFFFFFFFFFFFFFFFFFFFFFFFFFFFFFFFFFFFFFFFFFFFFFC0
:2080E000FFFFFFFFFFFFFFFFFFFFFFFFFFFFFFFFFFFFFFFFFFFFFFFFFFFFFFFFFFFFFFFFA0
:20810000FFFFFFFFFFFFFFFFFFFFFFFFFFFFFFFFFFFFFFFFFFFFFFFFFFFFFFFFFFFFFFFF7F
:20812000FFFFFFFFFFFFFFFFFFFFFFFFFFFFFFFFFFFFFFFFFFFFFFFFFFFFFFFFFFFFFFFF5F
:20C0000000FFFFFFFFFFFFFFFFFFFFFFFFFFFFFFFFFFFFFFFFFFFFFFFFFFFFFFFFFFFFFF3F
:20C02000FFFFFFFFFFFFFFFFFFFFFFFFFFFFFFFFFFFFFFFFFFFFFFFFFFFFFFFFFFFFFFFF20
:20C04000FFFFFFFFFFFFFFFFFFFFFFFFFFFFFFFFFFFFFFFFFFFFFFFFFFFFFFFFFFFFFFFF00
:20C06000FFFFFFFFFFFFFFFFFFFFFFFFFFFFFFFFFFFFFFFFFFFFFFFFFFFFFFFFFFFFFFFFE0
:20C08000FFFFFFFFFFFFFFFFFFFFFFFFFFFFFFFFFFFFFFFFFFFFFFFFFFFFFFFFFFFFFFFFC0
:020000040801F1
:020000040802F0
:2000000020EC0120AD030208850A0308870A03088B0A03088F0A0308930A030800000000D7
:20002000000000000000000000000000990A0308970A0308000000009B0A03089D0A030804
:20004000C7030208C7030208C7030208C7030208C7030208C7030208C7030208C703020800
:20006000C7030208C7030208C7030208C7030208C7030208C7030208C7030208C7030208E0
:20008000C7030208410D0308C7030208C7030208C7030208C7030208C7030208BD2C03081B
:2000A000C7030208C7030208C7030208C7030208C7030208C7030208C7030208C7030208A0
:2000C000C7030208C7030208C7030208C7030208C70302089F0A0308BDCE0208910B03080C
:2000E000C7030208C7030208C7030208C7030208C7030208C7030208C7030208C703020860
:20010000C7030208C7030208C7030208C7030208C7030208C7030208C7030208A71E030843
:20012000C7030208C7030208C7030208C7030208C7030208C7030208C7030208C70302081F
:20014000C7030208C7030208C7030208C7030208C70302080D0D0308C7030208DF0C03088C
:20016000C7030208C7030208C7030208C7030208C7030208C7030208C7030208C7030208DF
:20018000C7030208C7030208DFF80CD01AF0C0FD00480047B3BC020820EC01200CB5002027
:2001A000019000907648006840F480307449086000BF7348006800F4003000900198401C64
:2001C0000190009818B90198B0F5A06FF1D16C48006800F4003010B10120009001E0002063
:2001E00000900098012846D165484030006840F080506349403108606248006840F4804087
:20020000604908605E48083000685D49083108600846006840F4004008600846006840F4C4
:20022000A05008605848091F0860081F006840F08070091F086000BF5148006800F00070D7
:200240000028F9D040F20560504908604C480830006820F003004A490831086008460068E4
:2002600040F00200086000BF45480830006800F00C000828F8D10CBD10B54548006840F44C
:200280007000434908603E48006840F001003C49086000203A4908310860394800683D493B
:2002A0000840374908603C48091D0860081F006820F48020091F0860002031490C310860EA
:2002C000FFF76CFF4FF0006031498039086010BD70B500200022022300240221284D083531
:2002E0002D6805F00C0020B1042806D0082834D107E02A4D2A4E356033E02A4D284E356060
:200300002FE01F4D2D1D2D68C5F380541C4D2D1D2D6805F03F0154B1224DB5FBF1F5184E0A
:20032000361D3668C6F3881605FB06F209E01B4DB5FBF1F5124E361D3668C6F3881605FBEE
:2003400006F20F4D2D1D2D68C5F301456D1C6B00B2FBF3F5124E356003E0104D104E3560BB
:2003600000BF00BF064D08352D68C5F303150E4E705D0B4D2D68C540094E356070BD0000D6
:20038000003802400070004010544007003C024088ED00E0FFFFF6FE103000240024F40047
:2003A0000000001000127A00040000100648804706480047FEE7FEE7FEE7FEE7FEE7FEE785
:2003C000FEE7FEE7FEE7FEE7790202088901020800BFFEE700B50246B2F5E06F0BD0B2F557
:2003E000C06F08D0B2F5A06F05D0B2F5806F02D0B2F5407F00D103E079215EA0FFF7E8FF74
:20040000694810436949086000BD70B50246002300250F24D07810B1D078012800D103E0EB
:200420008D2154A0FFF7D4FF5078102800DA03E08E2150A0FFF7CCFF9078102800DA03E037
:200440008F214CA0FFF7C4FFD07818B35748006800F4E060C0F5E060C0F30723C3F104006F
:20046000C5B21C415078A840C3B29078204003431807030E4E4811784354107800F01F0157
:200480000120884011784911890001F1E021C1F8000109E0107800F01F0101208840454962
:2004A0001678761141F8260070BD00B502460B46B2F1005F02D0B2F1006F00D103E0B721DB
:2004C0002CA0FFF785FF3C48834200D203E0B82128A0FFF77DFF394903EA01001043334986
:2004E000091F086000BD00B502460B46102A03D0042A01D0022A00D103E0CA211DA0FFF7D7
:2005000067FF0BB1012B00D103E0CB2119A0FFF75FFF3BB12548001D006810432349091D1D
:20052000086006E02148001D006890431F49091D086000BD00B50246042A01D0501D00B9D7
:2005400003E0E2210BA0FFF743FF042A08D14FF0E020006940F004004FF0E021086107E05F
:200560004FF0E020006920F004004FF0E021086100BD00002E2E5C4C696272617269657304
:200580005C53544D3332463478785F5374645065726970685F4472697665725C7372635C7F
:2005A0006D6973632E6300000000FA050CED00E000E400E080E100E0FFFF0F0080FFFF1F77
:2005C00010B50446FE4884423AD0FD481830844236D0FB483030844232D0F94848308442B3
:2005E0002ED0F748603084422AD0F5487830844226D0F3489030844222D0F148A830844243
:200600001ED0F04884421BD0EE481830844217D0EC483030844213D0EA48483084420FD04C
:20062000E848603084420BD0E6487830844207D0E4489030844203D0E248A830844200D1C8
:2006400003E0BF21E0A0FFF7C3FE206820F001002060002020606060A060E0602061212025
:200660006061D748844204D13D20D549103988608CE0D3481830844205D14FF47460D049B8
:200680001039886082E0CE483030844205D14FF47410CB491039886078E0C9484830844202
:2006A00005D14FF07460C649103988606EE0C4486030844204D1D348C1491039C86065E0B1
:2006C000BF487830844204D1CF48BD491039C8605CE0BB489030844204D1CC48B84910394A
:2006E000C86053E0B648A830844205D14FF03D50B3491039C86049E0B248844204D13D20D9
:20070000B0490839086041E0AE481830844205D14FF47460AB490839086037E0A948303020
:20072000844205D14FF47410A649083908602DE0A4484830844205D14FF07460A149083973
:20074000086023E09F486030844204D1AD489D49091F08601AE09B487830844204D1AA489F
:200760009849091F086011E096489030844204D1A6489449091F086008E09248A830844223
:2007800004D14FF03D508F49091F086010BD70B505460C4600268A4885423AD088481830E0
:2007A000854236D086483030854232D08448483085422ED08248603085422AD080487830E1
:2007C000854226D07E489030854222D07C48A83085421ED07B4885421BD07A481830854286
:2007E00017D078483030854213D07648483085420FD07448603085420BD072487830854255
:2008000007D070489030854203D06E48A830854200D104E04FF49E716BA0FFF7D9FD206834
:20082000D8B12068B0F1007F17D02068B0F1806F13D02068B0F1C06F0FD02068B0F1006FD6
:200840000BD02068B0F1206F07D02068B0F1406F03D02068B0F1606F00D104E040F23D1156
:2008600059A0FFF7B5FDE06828B1E068402802D0E068802800D104E04FF49F7152A0FFF754
:20088000A7FD206920B12069B0F5803F00D204E040F23F114CA0FFF79BFD6069B0F5007FCE
:2008A00001D0606900B904E04FF4A07146A0FFF78FFDA069B0F5806F01D0A06900B904E031
:2008C00040F2411140A0FFF783FDE06938B1E069B0F5006F03D0E069B0F5805F00D104E05A
:2008E0004FF4A17138A0FFF773FD206A38B1206AB0F5005F03D0206AB0F5804F00D104E0DE
:2009000040F2431130A0FFF763FD606A18B1606AB0F5807F00D104E04FF4A2712AA0FFF75F
:2009200057FDA06A58B1A06AB0F5803F07D0A06AB0F5003F03D0A06AB0F5403F00D104E067
:2009400040F2451120A0FFF743FDE06A10B1E06A042800D104E04FF4A3711BA0FFF738FDA6
:20096000206B40B1206B012805D0206B022802D0206B032800D104E040F2471112A0FFF74E
:2009800027FD606B58B1606BB0F5000F07D0606BB0F1807F03D0606BB0F1C07F00D104E06B
:2009A0004FF4A47108A0FFF713FDA06B80B3A06BB0F5001F31D0A06BB0F5800F2DD028E0DF
:2009C00010600240106402402E2E5C4C69627261726965735C53544D3332463478785F5389
:2009E00074645065726970685F4472697665725C7372635C73746D3332663478785F646D79
:200A0000612E63003D000020400F002000003D2003E0A06BB0F5C00F00D105E040F2491117
:200A2000AFF25C00FFF7D4FC2E68FE480640E1682068084361690843A1690843E1690843B6
:200A4000216A0843616A0843A16A0843616B0843A16B084306432E606E6926F00706D4E958
:200A60000B01084306436E61206968606068A860A068E86070BD0021016041608160C16044
:200A8000016141618161C161016241628162C162016341638163704770B504460D46E248B3
:200AA00084423AD0E0481830844236D0DE483030844232D0DC48483084422ED0DA486030CA
:200AC00084422AD0D8487830844226D0D6489030844222D0D448A83084421ED0D3488442B3
:200AE0001BD0D2481830844217D0D0483030844213D0CE48483084420FD0CC48603084423E
:200B00000BD0CA487830844207D0C8489030844203D0C648A830844200D105E040F2D911BC
:200B2000AFF25C10FFF754FC0DB1012D00D105E04FF4ED71AFF27010FFF74AFC25B1206864
:200B400040F00100206003E0206820F00100206070BD70B504460D46B34884423AD0B24834
:200B60001830844236D0B0483030844232D0AE48483084422ED0AC48603084422AD0AA48D9
:200B80007830844226D0A8489030844222D0A648A83084421ED0A54884421BD0A34818303E
:200BA000844217D0A1483030844213D09F48483084420FD09D48603084420BD09B487830F1
:200BC000844207D099489030844203D09748A830844200D105E040F2FD11AFF21420FFF700
:200BE000F7FB15B1B5F5004F00D105E04FF4FF71AFF22C20FFF7ECFB25B1206840F400403F
:200C0000206003E0206820F40040206070BD70B504460D46844884423AD0834818308442B1
:200C200036D081483030844232D07F48483084422ED07D48603084422AD07B487830844274
:200C400026D079489030844222D07748A83084421ED0764884421BD074481830844217D0FA
:200C600072483030844213D07048483084420FD06E48603084420BD06C487830844207D0FC
:200C80006A489030844203D06848A830844200D105E040F22121AFF2D020FFF799FB0DB1F8
:200CA000202D00D105E040F22221AFF2E420FFF78FFB25B1206840F02000206003E02068FE
:200CC00020F02000206070BD70B504460D46564884423AD054481830844236D0524830305D
:200CE000844232D05048483084422ED04E48603084422AD04C487830844226D04A48903028
:200D0000844222D04848A83084421ED0474884421BD046481830844217D04448303084428A
:200D200013D04248483084420FD04048603084420BD03E487830844207D03C48903084429B
:200D400003D03A48A830844200D105E040F27521AFF28C30FFF73CFB656070BD10B5044697
:200D6000314884423AD030481830844236D02E483030844232D02C48483084422ED02A48DE
:200D8000603084422AD028487830844226D026489030844222D02448A83084421ED02348E6
:200DA00084421BD021481830844217D01F483030844213D01D48483084420FD01B4860303F
:200DC00084420BD019487830844207D017489030844203D01548A830844200D105E04FF420
:200DE0002171AFF21C40FFF7F3FA606880B210BD70B504460E4615460B48844240D00A4821
:200E0000183084423CD008483030844238D006484830844234D004486030844230D00248BE
:200E2000783005E03F801CF01060024010640240844225D0FE48844222D0FD4818308442E6
:200E40001ED0FC4884421BD0FA481830844217D0F8483030844213D0F648483084420FD0D4
:200E6000F448603084420BD0F2487830844207D0F0489030844203D0EE48A830844200D150
:200E800005E040F2D221AFF2C040FFF7A1FA15B1B5F5002F00D105E040F2D321AFF2D840E2
:200EA000FFF796FA25B1206840F40020206003E0206820F400202060266170BD70B5044638
:200EC0000D46DB489038844239D0D9487838844235D0D7486038844231D0D5484838844288
:200EE0002DD0D3483038844229D0D1481838844225D0CF48844222D0CD48183084421ED0AF
:200F0000CC4884421BD0CB481830844217D0C9483030844213D0C748483084420FD0C548B1
:200F2000603084420BD0C3487830844207D0C1489030844203D0BF48A830844200D105E073
:200F40004FF43C71AFF28050FFF742FA0DB1012D00D105E040F2F121AFF29450FFF738FA6B
:200F600025B1206840F48020206003E0206820F48020206070BD70B504460E461546AC48E1
:200F80009038844239D0AA487838844235D0A8486038844231D0A648483884422DD0A448E1
:200FA0003038844229D0A2481838844225D0A048844222D09E48183084421ED09D488442E8
:200FC0001BD09C481830844217D09A483030844213D09848483084420FD096486030844231
:200FE0000BD094487830844207D092489030844203D09048A830844200D105E040F21A3119
:20100000AFF23C60FFF7E4F915B1B5F5002F00D105E040F21B31AFF25060FFF7D9F90DB116
:20102000266100E0E66070BD70B50446002580489038844239D07E487838844235D07C48DE
:201040006038844231D07A48483884422DD078483038844229D076481838844225D07448C0
:20106000844222D07248183084421ED0714884421BD070481830844217D06E48303084420F
:2010800013D06C48483084420FD06A48603084420BD068487830844207D066489030844290
:2010A00003D06448A830844200D105E040F23531AFF2EC60FFF78CF9206800F4002008B108
:2010C000012500E00025284670BD70B50446002557489038844239D055487838844235D068
:2010E00053486038844231D05148483884422DD04F483038844229D04D481838844225D0BC
:201100004B48844222D04A48183084421ED0494884421BD047481830844217D04548303043
:20112000844213D04348483084420FD04148603084420BD03F487830844207D03D48903093
:20114000844203D03B48A830844200D105E040F2A231AFF28C70FFF73BF9206800F00100DA
:2011600008B1012500E00025284670BD70B5044600252F489038844239D02D487838844263
:2011800035D02B486038844231D02948483884422DD027483038844229D0254818388442AB
:2011A00025D02348844222D02148183084421ED0204884421BD01F481830844217D01D48D8
:2011C0003030844213D01B48483084420FD01948603084420BD017487830844207D01548F3
:2011E0009030844203D01348A830844200D105E04FF47171AFF63000FFF7EAF8606900F05C
:201200003805284670BD2DE9F04105460C464FF0000800270648903885423ED004487838BD
:2012200085423AD002486038854236D0004803E0A060024010640240483885422DD0FE4881
:2012400085422AD0FC481830854226D0FA483030854222D0F848483085421ED0F7488542B6
:201260001BD0F6481830854217D0F4483030854213D0F248483085420FD0F0486030854222
:201280000BD0EE487830854207D0EC489030854203D0EA48A830854200D105E040F2E1319E
:2012A000AFF6DC00FFF794F8E54884427CD0E4481038844278D0E2481838844274D0E148BD
:2012C000844271D0C01E84426ED0DF4884426BD0DE48844268D0DE48844265D0D848E03088
:2012E000844261D0D648203084425DD0B4F1815F5AD0D848844257D0D748844254D0D748B2
:20130000844251D0D64884424ED0B4F1C05F4BD0B4F1A05F48D0B4F1905F45D0B4F1885F14
:2013200042D0B4F1825F3FD0CE4884423CD0CD481038844238D0CB481838844234D0001FA7
:20134000844231D0C01E84422ED0C74884422BD0C648844228D0C648844225D0C148E030A6
:20136000844221D0BF48203084421DD0C14884421AD0C148844217D0C048844214D0C04883
:20138000844211D0BF4884420ED0B4F1205F0BD0B4F1105F08D0B4F1085F05D0B4F1045F27
:2013A00002D0B4F1015F00D105E040F2E231AFF6E810FFF70DF8A148854202D29E4E703EA5
:2013C00001E09E4E103E04F0005008B1776800E03768AD48074007EA040010B14FF001085D
:2013E00001E04FF000084046BDE8F08170B504460D4691486038844239D08F48483884420A
:2014000035D08D483038844231D08B48183884422DD0894884422AD087481830844226D079
:2014200085483030844222D08348483084421ED0824884421BD081481830844217D07F48D0
:201440003030844213D07D48483084420FD07B48603084420BD079487830844207D07748E8
:201460009030844203D07548A830844200D105E040F22241AFF6B020FEF7AAFF05F04050D5
:20148000B0F1405F07D005F0405020B17F48284008B905B105E040F22341AFF6D420FEF730
:2014A00097FF6648844202D2634E703E01E0634E103E05F0005018B173482840F06002E0AC
:2014C00071482840B06070BD70B504460D46164659486038844239D057484838844235D09E
:2014E00055483038844231D05348183884422DD0514884422AD050481830844226D04E48E7
:201500003030844222D04C48483084421ED04B4884421BD049481830844217D0474830303A
:20152000844213D04548483084420FD04348603084420BD041487830844207D03F48903087
:20154000844203D03D48A830844200D105E040F24F41AFF68C30FEF73BFF25F09E0008B953
:2015600005B105E04FF48A61AFF6A430FEF730FF0EB1012E00D105E040F25141AFF6B83010
:20158000FEF726FF05F0800048B126B1606940F08000606103E0606920F080006061802D08
:2015A0000BD02EB1206805F01E010843206004E0206805F01E018843206070BD2DE9F047C5
:2015C00005460C464FF000080027B9461A486038854265D018484838854261D0164830386D
:2015E00085425DD014481838854259D01248854256D011481830854252D00F48303085420C
:201600004ED00D48483085424AD00C48854247D00A481830854243D00848303085423FD0D2
:201620000648483085423BD004486030854237D00248783085422BE07060024010640240DC
:2016400020000010040080100008001000040010000200100000101000000810000004103C
:20166000000001102000002000080020000400200002002000002020000010200000082013
:2016800000000420000001207D0F7D0F82F082C006D09548854203D093481830854200D131
:2016A00005E040F28741AFF6E040FEF791FE8F48844278D08E48844275D08E48844272D05E
:2016C0008D4884426FD08D4884426CD08C48844269D08C48844266D08B48844263D086481C
:2016E000FC3084425FD085483F3084425BD08748844258D08648844255D08648844252D070
:20170000854884424FD0854884424CD08448844249D08448844246D08348844243D08348A6
:20172000844240D0824884423DD0824884423AD08148844237D08148844234D080488442E5
:2017400031D0804884422ED07F4884422BD07F48844228D07E48844225D07948FC308442BB
:2017600021D078483F3084421DD07A4884421AD07948844217D07948844214D078488442C5
:2017800011D0784884420ED0774884420BD07748844208D07648844205D07648844202D098
:2017A0007548844200D105E04FF49161AFF6E850FEF70EFE4C489038854201D26F4E01E049
:2017C000494EA03E6E48204030B11E2000EAD427286800EA070902E0686900F0800904F0D0
:2017E000005008B1776800E037686648074007EA040028B1B9F1000F02D04FF0010801E00B
:201800004FF000084046BDE8F08770B504460D465A48103084423AD058482830844236D0A7
:2018200056484030844232D05448583084422ED05248703084422AD050488830844226D0E4
:201840004E48A030844222D04C48B83084421ED02548903884421AD023487838844216D08E
:2018600021486038844212D01F48483884420ED01D48303884420AD01B481838844206D078
:201880001948844203D018481830844200D105E040F2D741AFF6D060FEF79AFD05F04050FA
:2018A000B0F1405F07D005F0405020B11DB13648284000B905E04FF49B61AFF6F460FEF73C
:2018C00087FD09489038844201D22C4E01E0064EA03E05F0005018B12A482840F06002E02B
:2018E00028482840B06070BDA0640240208000101040001008200010041000100100009090
:201900000088001000440010002200100080201000401010002008100010041000000190AC
:20192000008000180040001400200012001000110000409020800020104000200820002020
:2019400004100020010000A0008800200044002000220020008020200040102000200820EC
:2019600000100420000001A000800028004000240020002200100021000040A00060024091
:201980003C0F3C0F7D0F7D0F820082400020B1490860091D0860091D0860091D0860AE4833
:2019A000AC4914310860704770B504460025207910B12079042800D103E07C21A7A0FEF78E
:2019C00007FD6079082805D060790C2802D06079102800D103E07D21A0A0FEF7F9FC206831
:2019E0006FF3160010B9206800B103E07E219BA0FEF7EEFCA07910B1A079012800D103E001
:201A00007F2196A0FEF7E4FC924DA07990B3284600682168884329460860081D00682168C9
:201A20008843291D0860207905442868216808432860884808300068216888438549083194
:201A40000860081D00682168884382490C310860607910280FD1081F0068216808437D49B3
:201A600008310860081D00682168084379490C3108600EE007E0774D607905442868216829
:201A80000843286005E020790544286821688843286070BD0021016001710C21417100211F
:201AA0008171704710B50446E00DC00508B904B103E0C12169A0FEF78BFC664810300068A6
:201AC000204364491031086010BD70B504460025012C3AD0022C38D0042C36D0082C34D011
:201AE000102C32D0202C30D0402C2ED0802C2CD0B4F5807F29D0B4F5007F26D0B4F5806FF3
:201B000023D0B4F5006F20D0B4F5805F1DD0B4F5005F1AD0B4F5804F17D0B4F5004F14D028
:201B2000B4F5803F11D0B4F5003F0ED0B4F5802F0BD0B4F5002F08D0B4F5801F05D0B4F5ED
:201B4000001F02D0B4F5800F00D103E0E02143A0FEF73EFC3F4814300068204008B1012523
:201B600000E00025284670BD10B50446E00DC00508B904B103E0F62138A0FEF729FC354825
:201B80001430046010BD70B5044600250026012C3AD0022C38D0042C36D0082C34D0102CFF
:201BA00032D0202C30D0402C2ED0802C2CD0B4F5807F29D0B4F5007F26D0B4F5806F23D07B
:201BC000B4F5006F20D0B4F5805F1DD0B4F5005F1AD0B4F5804F17D0B4F5004F14D0B4F5B2
:201BE000803F11D0B4F5003F0ED0B4F5802F0BD0B4F5002F08D0B4F5801F05D0B4F5001FB7
:201C000002D0B4F5800F00D104E04FF4837113A0FEF7DEFB0F48006800EA04060D48143001
:201C20000068204010B10EB1012500E00025284670BD10B50446E00DC00508B904B104E07B
:201C400040F21D1105A0FEF7C3FB02481430046010BD0000003C0140FFFF7F002E2E5C4C0F
:201C600069627261726965735C53544D3332463478785F5374645065726970685F44726984
:201C80007665725C7372635C73746D3332663478785F657874692E630000000010B50446FB
:201CA0006CB1012C0BD0022C09D0032C07D0042C05D0052C03D0062C01D0072C00D103E0FF
:201CC000A921EFA0FEF784FBFD490C7010BD10B504460CB1012C00D103E0B821E8A0FEF7A5
:201CE00077FB34B1F648006840F48070F449086005E0F348006820F48070F149086010BD23
:201D000010B504460CB1012C00D103E0CE21DCA0FEF75EFB34B1EA48006840F40070E84909
:201D2000086005E0E648006820F40070E449086010BD10B504460CB1012C00D103E0E32129
:201D4000CFA0FEF745FB34B1DD48006840F48060DB49086005E0DA48006820F48060D84949
:201D6000086010BDD648006840F40060D44908607047D348006840F48050D1490860704718
:201D8000CF481030006800F0004028B1CD48CC49091D0860CC4808607047C94810300068D7
:201DA00040F00040C6491031086070470820C4490C31096801F48031B1F5803F01D1012063
:201DC00018E0BF490C31096801F0100109B1052010E0BB490C31096801F0EF0109B1062011
:201DE00008E0B7490C31096801F0020109B1072000E00820704708B508200090FFF7D6FF79
:201E0000009002E0FFF7D2FF00909DF800000128F8D09DF8000008BD2DE9F04104460D4635
:201E200000270826ACB1082C13D0102C11D0182C0FD0202C0DD0282C0BD0302C09D0382CA8
:201E400007D0402C05D0482C03D0502C01D0582C00D104E040F25B1189A0FEF7B9FA2DB150
:201E6000012D03D0022D01D0032D00D104E04FF4AE7183A0FEF7ACFA0DB9002709E0012D58
:201E800001D12F0205E0022D01D12F0201E04FF44077FFF7B0FF0646082E2DD18848103018
:201EA000006820F4407086491031086008460068384308600846006820F0F8000860084671
:201EC000006844F0020108437D49103108600846006840F480300860FFF78DFF0646784819
:201EE0001030006820F002007549103108600846006820F0F80008603046BDE8F08170B5EA
:201F0000044600260825FFF776FF05462CB1012C03D0022C01D0032C00D104E040F29D11CE
:201F200057A0FEF755FA0CB9002609E0012C01D1260205E0022C01D1260201E04FF4407684
:201F4000082D20D15E481030006820F440705C4910310860084600683043086008460068B4
:201F600040F0040008600846006840F480300860FFF741FF054652481030006820F00400EC
:201F80004F4910310860284670BD2DE9F041044615461E460827B4F1006F02D34B488442A4
:201FA00005D34B48844203D34A48844200D204E04FF4E87132A0FEF70BFAFFF71CFF074646
:201FC000082F1ED13E481030006820F440703C49103108600846006840F44070086008466B
:201FE000006840F00100086025606660FFF703FF074633481030006820F001003049103162
:2020000008603846BDE8F08170B504460D460826B4F1006F02D32D48844205D32C4884429E
:2020200003D32C48844200D204E04FF4FB7114A0FEF7CEF9FFF7DFFE0646082E1DD1204810
:202040001030006820F440701D49103108600846006840F4007008600846006840F001005C
:2020600008602560FFF7C7FE064615481030006820F00100124910310860304670BD0000AF
:202080002E2E5C4C69627261726965735C53544D3332463478785F537464506572697068DA
:2020A0005F4472697665725C7372635C73746D3332663478785F666C6173682E6300000014
:2020C000003C024023016745AB89EFCDFFFF0F080078FF1F0F7AFF1F70B504460D46082680
:2020E000B4F1006F02D3CE48844205D3CD48844203D3CD48844200D205E04FF40771AFF2A4
:202100008000FEF765F9FFF776FE0646082E19D1C648006820F44070C449086008460068B1
:2021200040F4807008600846006840F0010008602580FFF760FE0646BC48006820F0010002
:20214000BA490860304670BD70B504460D460826B4F1006F02D3B248844205D3B148844241
:2021600003D3B148844200D205E040F24221AFF2F000FEF72DF9FFF73EFE0646082E17D136
:20218000AA48006820F44070A84908600846006808600846006840F0010008602570FFF7D0
:2021A0002AFE0646A148006820F001009F490860304670BD9D48001D006800F0010028B122
:2021C0009B489A49083908609A48086070479748001D006840F001009449091D08607047D8
:2021E00070B504460D460826200B000308B904B105E040F2B621AFF27810FEF7E9F80DB1A0
:20220000012D00D105E040F2B721AFF28C10FEF7DFF8FFF7F0FD0646082E10D13DB18348C8
:20222000801D0088A0438149891D088007E07F48801D0088A1B208437C49891D088070BD0D
:2022400070B504460825AA2C01D0552C00D105E040F2D921AFF2D810FEF7BAF8FFF7CBFDEA
:202260000546082D02D17148401D047070BD2DE9F04104460D461646FF274FF00808202C53
:2022800000D004B905E040F2FA21AFF20C20FEF79FF8402D00D005B905E040F2FB21AFF257
:2022A0002020FEF795F8802E00D006B905E04FF43F71AFF23420FEF78BF8FFF79CFD804685
:2022C000B8F1080F0BD15948001D007800F00F0745EA0700304320435449091D0870BDE83A
:2022E000F08110B50446082C04D0042C02D00CB10C2C00D105E04FF44671AFF27C20FEF77D
:2023000067F84A48001D007820F00C004749091D0870084600782043087010BD00B50822A0
:202320004248001D007840F002004049091D0870FFF761FD0246104600BD3C48001D00686D
:20234000C0F3471070473948801D0088704700203649491D0978AA2901D0012000E0002014
:2023600070473248001D007800F00C00704770B504460D4624F0407008B904B105E040F2D1
:202380008A31AFF20430FEF723F80DB1012D00D105E040F28B31AFF21830FEF719F82DB140
:2023A0002248006820432149086004E01F480068A0431E49086070BD70B504460025012CC3
:2023C0000CD0022C0AD0102C08D0202C06D0402C04D0802C02D0B4F5803F00D105E040F2D5
:2023E000AA31AFF26430FDF7F3FF1048001F0068204008B1012500E00025284670BD10B564
:20240000044624F0F30008B904B105E040F2C731AFF29430FDF7DCFF0448001F046010BD16
:20242000FFFF0F080078FF1F0F7AFF1F103C02403B2A19087F6E5D4C10B50446FA48844289
:2024400017D0FA48844214D0F948844211D0F94884420ED0F84884420BD0F848844208D01D
:20246000F748844205D0F748844202D0F648844200D103E07B21F5A0FDF7AAFFEA4884422D
:2024800008D10121084601F08DF90021012001F089F95EE0E548844208D10121022001F088
:2024A00081F90021022001F07DF952E0E048844208D10121042001F075F90021042001F024
:2024C00071F946E0DB48844208D10121082001F069F90021082001F065F93AE0D648844277
:2024E00008D10121102001F05DF90021102001F059F92EE0D148844208D10121202001F0BD
:2025000051F90021202001F04DF922E0CC48844208D10121402001F045F90021402001F001
:2025200041F916E0C748844208D10121802001F039F90021802001F035F90AE0C24884423E
:2025400007D10121801501F02DF90021A01501F029F910BD2DE9F04104460D4600260027EE
:20256000B046B148844217D0B048844214D0B048844211D0AF4884420ED0AF4884420BD04B
:20258000AE48844208D0AE48844205D0AD48844202D0AD48844200D103E0BB21ABA0FDF7FF
:2025A00017FF002010B9286800B103E0BC21A7A0FDF70EFF287940B12879012805D0287901
:2025C000022802D02879032800D103E0BD219FA0FDF7FEFEE87928B1E879012802D0E8797B
:2025E000022800D103E0BE2198A0FDF7F1FE002657E0012000FA06F7286800EA0708B84508
:202600004ED12068720003219140884320602879710088402168084320602879012802D097
:202620002879022830D1687940B16879012805D06879022802D06879032800D103E0D0218F
:2026400082A0FDF7C5FEA0687200032191408843A060687971008840A1680843A060A879D8
:2026600010B1A879012800D103E0D72177A0FDF7AFFE61680120B040814361606068A979A2
:20268000B14089B208436060E0687200032191408843E060E87971008840E1680843E060DB
:2026A000761C102EA5D3BDE8F0814FF6FF7101600021017141718171C171704738B504464F
:2026C0000D464FF4803000905748844217D05748844214D05648844211D0564884420ED008
:2026E000554884420BD05548844208D05448844205D05448844202D05348844200D104E0E0
:202700004FF4827151A0FDF763FE002008B905B104E040F205114DA0FDF75AFE009828433E
:2027200000900098E061E5610098E061E0690090E069009038BD70B505460C4600263A4800
:20274000854217D03948854214D03948854211D0384885420ED0384885420BD037488542E9
:2027600008D03748854205D03648854202D03648854200D104E04FF4987134A0FDF728FE1B
:20278000012C25D0022C23D0042C21D0082C1FD0102C1DD0202C1BD0402C19D0802C17D06A
:2027A000B4F5807F14D0B4F5007F11D0B4F5806F0ED0B4F5006F0BD0B4F5805F08D0B4F512
:2027C000005F05D0B4F5804F02D0B4F5004F00D104E040F231111DA0FDF7FAFD28692040C1
:2027E00008B1012600E00026304670BD10B504460D48844217D00D48844214D00C48844226
:2028000011D00C4884420ED00B4884420BD00B48844208D00A48844205D00A48844202D023
:202820000948844232D137E0000002400004024000080240000C024000100240001402409F
:2028400000180240001C0240002002402E2E5C4C69627261726965735C53544D33324634DA
:2028600078785F5374645065726970685F4472697665725C7372635C73746D3332663478E0
:20288000785F6770696F2E63000000004FF4A371AFF24800FDF79CFD206980B210BD70B5A7
:2028A00005460C460026FE48854217D0FD48854214D0FD48854211D0FC4885420ED0FC4857
:2028C00085420BD0FB48854208D0FB48854205D0FA48854202D0FA48854200D105E040F2C9
:2028E0005711AFF29800FDF773FD012C25D0022C23D0042C21D0082C1FD0102C1DD0202CD7
:202900001BD0402C19D0802C17D0B4F5807F14D0B4F5007F11D0B4F5806F0ED0B4F5006FC1
:202920000BD0B4F5805F08D0B4F5005F05D0B4F5804F02D0B4F5004F00D105E04FF4AC7127
:20294000AFF2F800FDF744FD6869204008B1012600E00026304670BD10B50446D048844202
:2029600017D0D048844214D0CF48844211D0CF4884420ED0CE4884420BD0CE48844208D0CA
:20298000CD48844205D0CD48844202D0CC48844200D105E040F26D11AFF25010FDF718FD90
:2029A000606980B210BD70B504460D46BC48844217D0BC48844214D0BB48844211D0BB4881
:2029C00084420ED0BA4884420BD0BA48844208D0B948844205D0B948844202D0B848844215
:2029E00000D105E040F27F11AFF2A010FDF7F0FC002008B905B105E04FF4C071AFF2B410D9
:202A0000FDF7E6FC258370BD70B504460D46A448844217D0A348844214D0A348844211D089
:202A2000A24884420ED0A24884420BD0A148844208D0A148844205D0A048844202D0A0480A
:202A4000844200D105E04FF4C971AFF20020FDF7BFFC002008B905B105E040F29311AFF21A
:202A60001420FDF7B5FC658370BD70B505460C4616468B48854217D08A48854214D08A487A
:202A8000854211D0894885420ED0894885420BD08848854208D08848854205D08748854234
:202AA00002D08748854200D105E04FF4D371AFF26420FDF78DFC012C25D0022C23D0042C5C
:202AC00021D0082C1FD0102C1DD0202C1BD0402C19D0802C17D0B4F5807F14D0B4F5007FE6
:202AE00011D0B4F5806F0ED0B4F5006F0BD0B4F5805F08D0B4F5005F05D0B4F5804F02D005
:202B0000B4F5004F00D105E040F2A711AFF2C420FDF75EFC0EB1012E00D105E04FF4D4711E
:202B2000AFF2D820FDF754FC0EB12C8300E06C8370BD70B504460D465948844217D059489D
:202B4000844214D05848844211D0584884420ED0574884420BD05748844208D0564884425F
:202B600005D05648844202D05548844200D105E040F2BD11AFF22C30FDF72AFC656170BD27
:202B800070B504460D464648844217D04548844214D04548844211D0444884420ED0444811
:202BA00084420BD04348844208D04348844205D04248844202D04248844200D105E040F2CB
:202BC000CB11AFF27830FDF703FC60696840606170BD2DE9F04106460D4614460027B84619
:202BE0002F48864217D02F48864214D02E48864211D02E4886420ED02D4886420BD02D48C4
:202C0000864208D02C48864205D02C48864202D02B48864200D105E040F21721AFF2D430F5
:202C2000FDF7D6FBEDB1012D1BD0022D19D0032D17D0042D15D0052D13D0062D11D0072D76
:202C40000FD0082D0DD0092D0BD00A2D09D00B2D07D00C2D05D00D2D03D00E2D01D00F2DF0
:202C600000D105E04FF40671AFF22040FDF7B0FB44B3092C45D02CB324B31CB314B3012C8A
:202C80003FD03ED0022C3CD03BD03AD0032C38D0042C36D035D034D0052C32D031D012E02C
:202CA000000002400004024000080240000C0240001002400014024000180240001C024094
